{
  "address": "0x0BF8Bbd1C9C20234D15d848BFffd50134a112df4",
  "abi": [
    {
      "inputs": [
        {
          "internalType": "contract ISDai",
          "name": "_sdai",
          "type": "address"
        }
      ],
      "stateMutability": "nonpayable",
      "type": "constructor"
    },
    {
      "inputs": [],
      "name": "InvalidShortString",
      "type": "error"
    },
    {
      "inputs": [
        {
          "internalType": "string",
          "name": "str",
          "type": "string"
        }
      ],
      "name": "StringTooLong",
      "type": "error"
    },
    {
      "anonymous": false,
      "inputs": [],
      "name": "EIP712DomainChanged",
      "type": "event"
    },
    {
      "anonymous": false,
      "inputs": [
        {
          "indexed": true,
          "internalType": "address",
          "name": "previousOwner",
          "type": "address"
        },
        {
          "indexed": true,
          "internalType": "address",
          "name": "newOwner",
          "type": "address"
        }
      ],
      "name": "OwnershipTransferred",
      "type": "event"
    },
    {
      "anonymous": false,
      "inputs": [
        {
          "indexed": false,
          "internalType": "address",
          "name": "account",
          "type": "address"
        }
      ],
      "name": "Paused",
      "type": "event"
    },
    {
      "anonymous": false,
      "inputs": [
        {
          "indexed": true,
          "internalType": "address",
          "name": "from",
          "type": "address"
        },
        {
          "indexed": true,
          "internalType": "address",
          "name": "to",
          "type": "address"
        },
        {
          "indexed": false,
          "internalType": "uint256",
          "name": "amount",
          "type": "uint256"
        }
      ],
      "name": "Payment",
      "type": "event"
    },
    {
      "anonymous": false,
      "inputs": [
        {
          "indexed": false,
          "internalType": "address",
          "name": "account",
          "type": "address"
        }
      ],
      "name": "Unpaused",
      "type": "event"
    },
    {
      "inputs": [],
      "name": "PAY_TYPEHASH",
      "outputs": [
        {
          "internalType": "bytes32",
          "name": "",
          "type": "bytes32"
        }
      ],
      "stateMutability": "view",
      "type": "function"
    },
    {
      "inputs": [],
      "name": "eip712Domain",
      "outputs": [
        {
          "internalType": "bytes1",
          "name": "fields",
          "type": "bytes1"
        },
        {
          "internalType": "string",
          "name": "name",
          "type": "string"
        },
        {
          "internalType": "string",
          "name": "version",
          "type": "string"
        },
        {
          "internalType": "uint256",
          "name": "chainId",
          "type": "uint256"
        },
        {
          "internalType": "address",
          "name": "verifyingContract",
          "type": "address"
        },
        {
          "internalType": "bytes32",
          "name": "salt",
          "type": "bytes32"
        },
        {
          "internalType": "uint256[]",
          "name": "extensions",
          "type": "uint256[]"
        }
      ],
      "stateMutability": "view",
      "type": "function"
    },
    {
      "inputs": [],
      "name": "owner",
      "outputs": [
        {
          "internalType": "address",
          "name": "",
          "type": "address"
        }
      ],
      "stateMutability": "view",
      "type": "function"
    },
    {
      "inputs": [],
      "name": "pause",
      "outputs": [],
      "stateMutability": "nonpayable",
      "type": "function"
    },
    {
      "inputs": [],
      "name": "paused",
      "outputs": [
        {
          "internalType": "bool",
          "name": "",
          "type": "bool"
        }
      ],
      "stateMutability": "view",
      "type": "function"
    },
    {
      "inputs": [
        {
          "components": [
            {
              "internalType": "address",
              "name": "from",
              "type": "address"
            },
            {
              "internalType": "address",
              "name": "to",
              "type": "address"
            },
            {
              "internalType": "uint256",
              "name": "amount",
              "type": "uint256"
            },
            {
              "components": [
                {
                  "internalType": "uint256",
                  "name": "deadline",
                  "type": "uint256"
                },
                {
                  "components": [
                    {
                      "internalType": "uint8",
                      "name": "v",
                      "type": "uint8"
                    },
                    {
                      "internalType": "bytes32",
                      "name": "r",
                      "type": "bytes32"
                    },
                    {
                      "internalType": "bytes32",
                      "name": "s",
                      "type": "bytes32"
                    }
                  ],
                  "internalType": "struct Flash.Signature",
                  "name": "signature",
                  "type": "tuple"
                }
              ],
              "internalType": "struct Flash.PermitData",
              "name": "permitData",
              "type": "tuple"
            }
          ],
          "internalType": "struct Flash.PaymentData",
          "name": "_paymentData",
          "type": "tuple"
        },
        {
          "components": [
            {
              "internalType": "uint8",
              "name": "v",
              "type": "uint8"
            },
            {
              "internalType": "bytes32",
              "name": "r",
              "type": "bytes32"
            },
            {
              "internalType": "bytes32",
              "name": "s",
              "type": "bytes32"
            }
          ],
          "internalType": "struct Flash.Signature",
          "name": "_signature",
          "type": "tuple"
        }
      ],
      "name": "pay",
      "outputs": [],
      "stateMutability": "nonpayable",
      "type": "function"
    },
    {
      "inputs": [],
      "name": "renounceOwnership",
      "outputs": [],
      "stateMutability": "nonpayable",
      "type": "function"
    },
    {
      "inputs": [],
      "name": "sdai",
      "outputs": [
        {
          "internalType": "contract ISDai",
          "name": "",
          "type": "address"
        }
      ],
      "stateMutability": "view",
      "type": "function"
    },
    {
      "inputs": [
        {
          "internalType": "address",
          "name": "_newOwner",
          "type": "address"
        }
      ],
      "name": "transferOwner",
      "outputs": [],
      "stateMutability": "nonpayable",
      "type": "function"
    },
    {
      "inputs": [
        {
          "internalType": "address",
          "name": "newOwner",
          "type": "address"
        }
      ],
      "name": "transferOwnership",
      "outputs": [],
      "stateMutability": "nonpayable",
      "type": "function"
    },
    {
      "inputs": [],
      "name": "unpause",
      "outputs": [],
      "stateMutability": "nonpayable",
      "type": "function"
    },
    {
      "inputs": [
        {
          "components": [
            {
              "internalType": "address",
              "name": "from",
              "type": "address"
            },
            {
              "internalType": "address",
              "name": "to",
              "type": "address"
            },
            {
              "internalType": "uint256",
              "name": "amount",
              "type": "uint256"
            },
            {
              "components": [
                {
                  "internalType": "uint256",
                  "name": "deadline",
                  "type": "uint256"
                },
                {
                  "components": [
                    {
                      "internalType": "uint8",
                      "name": "v",
                      "type": "uint8"
                    },
                    {
                      "internalType": "bytes32",
                      "name": "r",
                      "type": "bytes32"
                    },
                    {
                      "internalType": "bytes32",
                      "name": "s",
                      "type": "bytes32"
                    }
                  ],
                  "internalType": "struct Flash.Signature",
                  "name": "signature",
                  "type": "tuple"
                }
              ],
              "internalType": "struct Flash.PermitData",
              "name": "permitData",
              "type": "tuple"
            }
          ],
          "internalType": "struct Flash.PaymentData",
          "name": "_paymentData",
          "type": "tuple"
        },
        {
          "components": [
            {
              "internalType": "uint8",
              "name": "v",
              "type": "uint8"
            },
            {
              "internalType": "bytes32",
              "name": "r",
              "type": "bytes32"
            },
            {
              "internalType": "bytes32",
              "name": "s",
              "type": "bytes32"
            }
          ],
          "internalType": "struct Flash.Signature",
          "name": "_signature",
          "type": "tuple"
        }
      ],
      "name": "verifyData",
      "outputs": [
        {
          "internalType": "bool",
          "name": "",
          "type": "bool"
        }
      ],
      "stateMutability": "nonpayable",
      "type": "function"
    },
    {
      "inputs": [
        {
          "components": [
            {
              "internalType": "address",
              "name": "from",
              "type": "address"
            },
            {
              "internalType": "address",
              "name": "to",
              "type": "address"
            },
            {
              "internalType": "uint256",
              "name": "amount",
              "type": "uint256"
            },
            {
              "components": [
                {
                  "internalType": "uint256",
                  "name": "deadline",
                  "type": "uint256"
                },
                {
                  "components": [
                    {
                      "internalType": "uint8",
                      "name": "v",
                      "type": "uint8"
                    },
                    {
                      "internalType": "bytes32",
                      "name": "r",
                      "type": "bytes32"
                    },
                    {
                      "internalType": "bytes32",
                      "name": "s",
                      "type": "bytes32"
                    }
                  ],
                  "internalType": "struct Flash.Signature",
                  "name": "signature",
                  "type": "tuple"
                }
              ],
              "internalType": "struct Flash.PermitData",
              "name": "permitData",
              "type": "tuple"
            }
          ],
          "internalType": "struct Flash.PaymentData",
          "name": "_paymentData",
          "type": "tuple"
        },
        {
          "components": [
            {
              "internalType": "uint8",
              "name": "v",
              "type": "uint8"
            },
            {
              "internalType": "bytes32",
              "name": "r",
              "type": "bytes32"
            },
            {
              "internalType": "bytes32",
              "name": "s",
              "type": "bytes32"
            }
          ],
          "internalType": "struct Flash.Signature",
          "name": "_signature",
          "type": "tuple"
        }
      ],
      "name": "verifyDataReverting",
      "outputs": [],
      "stateMutability": "nonpayable",
      "type": "function"
    },
    {
      "inputs": [
        {
          "components": [
            {
              "internalType": "address",
              "name": "from",
              "type": "address"
            },
            {
              "internalType": "address",
              "name": "to",
              "type": "address"
            },
            {
              "internalType": "uint256",
              "name": "amount",
              "type": "uint256"
            },
            {
              "components": [
                {
                  "internalType": "uint256",
                  "name": "deadline",
                  "type": "uint256"
                },
                {
                  "components": [
                    {
                      "internalType": "uint8",
                      "name": "v",
                      "type": "uint8"
                    },
                    {
                      "internalType": "bytes32",
                      "name": "r",
                      "type": "bytes32"
                    },
                    {
                      "internalType": "bytes32",
                      "name": "s",
                      "type": "bytes32"
                    }
                  ],
                  "internalType": "struct Flash.Signature",
                  "name": "signature",
                  "type": "tuple"
                }
              ],
              "internalType": "struct Flash.PermitData",
              "name": "permitData",
              "type": "tuple"
            }
          ],
          "internalType": "struct Flash.PaymentData",
          "name": "_paymentData",
          "type": "tuple"
        },
        {
          "components": [
            {
              "internalType": "uint8",
              "name": "v",
              "type": "uint8"
            },
            {
              "internalType": "bytes32",
              "name": "r",
              "type": "bytes32"
            },
            {
              "internalType": "bytes32",
              "name": "s",
              "type": "bytes32"
            }
          ],
          "internalType": "struct Flash.Signature",
          "name": "_signature",
          "type": "tuple"
        }
      ],
      "name": "verifySignature",
      "outputs": [
        {
          "internalType": "bool",
          "name": "",
          "type": "bool"
        }
      ],
      "stateMutability": "view",
      "type": "function"
    }
  ],
  "transactionHash": "0xc580b66c895a3b8a4f0e3fed79068bc56b305c36f27c124c13a0fd42584f469a",
  "args": [
    "0xaf204776c7245bF4147c2612BF6e5972Ee483701"
  ],
  "numDeployments": 1,
  "solcInputHash": "2644f3b0792d1ceb87b5bbc960e58e20",
  "bytecode": "0x6101806040523480156200001257600080fd5b506040516200431938038062004319833981810160405281019062000038919062000443565b6040518060400160405280600581526020017f466c6173680000000000000000000000000000000000000000000000000000008152506040518060400160405280600181526020017f3100000000000000000000000000000000000000000000000000000000000000815250620000ba600083620001cb60201b90919060201c565b6101208181525050620000d8600182620001cb60201b90919060201c565b6101408181525050818051906020012060e08181525050808051906020012061010081815250504660a08181525050620001176200022360201b60201c565b608081815250503073ffffffffffffffffffffffffffffffffffffffff1660c08173ffffffffffffffffffffffffffffffffffffffff1681525050505062000174620001686200028060201b60201c565b6200028860201b60201c565b6000600260146101000a81548160ff0219169083151502179055508073ffffffffffffffffffffffffffffffffffffffff166101608173ffffffffffffffffffffffffffffffffffffffff168152505050620009c5565b6000602083511015620001f157620001e9836200034e60201b60201c565b90506200021d565b826200020383620003bb60201b60201c565b6000019081620002149190620006ef565b5060ff60001b90505b92915050565b60007f8b73c3c69bb8fe3d512ecc4cf759cc79239f7b179b0ffacaa9a75d522b39400f60e0516101005146306040516020016200026595949392919062000813565b60405160208183030381529060405280519060200120905090565b600033905090565b6000600260009054906101000a900473ffffffffffffffffffffffffffffffffffffffff16905081600260006101000a81548173ffffffffffffffffffffffffffffffffffffffff021916908373ffffffffffffffffffffffffffffffffffffffff1602179055508173ffffffffffffffffffffffffffffffffffffffff168173ffffffffffffffffffffffffffffffffffffffff167f8be0079c531659141344cd1fd0a4f28419497f9722a3daafe3b4186f6b6457e060405160405180910390a35050565b600080829050601f815111156200039e57826040517f305a27a9000000000000000000000000000000000000000000000000000000008152600401620003959190620008ff565b60405180910390fd5b805181620003ac9062000955565b60001c1760001b915050919050565b6000819050919050565b600080fd5b600073ffffffffffffffffffffffffffffffffffffffff82169050919050565b6000620003f782620003ca565b9050919050565b60006200040b82620003ea565b9050919050565b6200041d81620003fe565b81146200042957600080fd5b50565b6000815190506200043d8162000412565b92915050565b6000602082840312156200045c576200045b620003c5565b5b60006200046c848285016200042c565b91505092915050565b600081519050919050565b7f4e487b7100000000000000000000000000000000000000000000000000000000600052604160045260246000fd5b7f4e487b7100000000000000000000000000000000000000000000000000000000600052602260045260246000fd5b60006002820490506001821680620004f757607f821691505b6020821081036200050d576200050c620004af565b5b50919050565b60008190508160005260206000209050919050565b60006020601f8301049050919050565b600082821b905092915050565b600060088302620005777fffffffffffffffffffffffffffffffffffffffffffffffffffffffffffffffff8262000538565b62000583868362000538565b95508019841693508086168417925050509392505050565b6000819050919050565b6000819050919050565b6000620005d0620005ca620005c4846200059b565b620005a5565b6200059b565b9050919050565b6000819050919050565b620005ec83620005af565b62000604620005fb82620005d7565b84845462000545565b825550505050565b600090565b6200061b6200060c565b62000628818484620005e1565b505050565b5b8181101562000650576200064460008262000611565b6001810190506200062e565b5050565b601f8211156200069f57620006698162000513565b620006748462000528565b8101602085101562000684578190505b6200069c620006938562000528565b8301826200062d565b50505b505050565b600082821c905092915050565b6000620006c460001984600802620006a4565b1980831691505092915050565b6000620006df8383620006b1565b9150826002028217905092915050565b620006fa8262000475565b67ffffffffffffffff81111562000716576200071562000480565b5b620007228254620004de565b6200072f82828562000654565b600060209050601f83116001811462000767576000841562000752578287015190505b6200075e8582620006d1565b865550620007ce565b601f198416620007778662000513565b60005b82811015620007a1578489015182556001820191506020850194506020810190506200077a565b86831015620007c15784890151620007bd601f891682620006b1565b8355505b6001600288020188555050505b505050505050565b6000819050919050565b620007eb81620007d6565b82525050565b620007fc816200059b565b82525050565b6200080d81620003ea565b82525050565b600060a0820190506200082a6000830188620007e0565b620008396020830187620007e0565b620008486040830186620007e0565b620008576060830185620007f1565b62000866608083018462000802565b9695505050505050565b600082825260208201905092915050565b60005b83811015620008a157808201518184015260208101905062000884565b60008484015250505050565b6000601f19601f8301169050919050565b6000620008cb8262000475565b620008d7818562000870565b9350620008e981856020860162000881565b620008f481620008ad565b840191505092915050565b600060208201905081810360008301526200091b8184620008be565b905092915050565b600081519050919050565b6000819050602082019050919050565b60006200094c8251620007d6565b80915050919050565b6000620009628262000923565b826200096e846200092e565b90506200097b816200093e565b92506020821015620009be57620009b97fffffffffffffffffffffffffffffffffffffffffffffffffffffffffffffffff8360200360080262000538565b831692505b5050919050565b60805160a05160c05160e0516101005161012051610140516101605161387762000aa2600039600081816103fb0152818161064201528181610722015281816107d901528181610888015281816109b301528181610a3601528181610ad501528181610b2401528181610cfb01528181610ddb01528181610e9201528181610f3901528181611064015281816110e701528181611186015281816111d50152611702015260006104a9015260006104750152600061207e0152600061205d01526000611b5801526000611bae01526000611bd701526138776000f3fe608060405234801561001057600080fd5b50600436106100ea5760003560e01c806384b0196e1161008c578063b353fe8911610066578063b353fe8914610207578063b6d316c814610223578063f2fde38b1461023f578063f3e9e6e81461025b576100ea565b806384b0196e146101955780638da5cb5b146101b957806394cc893f146101d7576100ea565b80635b2eeca4116100c85780635b2eeca4146101455780635c975abb14610163578063715018a6146101815780638456cb591461018b576100ea565b80633ae60951146100ef5780633f4ba83a1461011f5780634fb2e45d14610129575b600080fd5b610109600480360381019061010491906123b5565b610279565b6040516101169190612411565b60405180910390f35b6101276103cb565b005b610143600480360381019061013e919061248a565b6103e5565b005b61014d6103f9565b60405161015a9190612516565b60405180910390f35b61016b61041d565b6040516101789190612411565b60405180910390f35b610189610434565b005b610193610448565b005b61019d610462565b6040516101b097969594939291906126fb565b60405180910390f35b6101c1610564565b6040516101ce919061277f565b60405180910390f35b6101f160048036038101906101ec91906123b5565b61058e565b6040516101fe9190612411565b60405180910390f35b610221600480360381019061021c91906123b5565b6105a7565b005b61023d600480360381019061023891906123b5565b610cb0565b005b6102596004803603810190610254919061248a565b611309565b005b61026361138c565b604051610270919061279a565b60405180910390f35b60006102836113b0565b3073ffffffffffffffffffffffffffffffffffffffff1663b6d316c884846040518363ffffffff1660e01b81526004016102be929190612a4d565b600060405180830381600087803b1580156102d857600080fd5b505af19250505080156102e9575060015b610385576102f5612a84565b806308c379a0036103755750610309612b06565b806103145750610377565b60405160200161032390612bed565b604051602081830303815290604052805190602001208160405160200161034a9190612c33565b604051602081830303815290604052805190602001201461036f5760009150506103c5565b50610380565b505b600090506103c5565b6103c0565b6040517f08c379a00000000000000000000000000000000000000000000000000000000081526004016103b790612cbc565b60405180910390fd5b600190505b92915050565b6103d36113fa565b6103db611478565b6103e36114c1565b565b6103ed6113fa565b6103f681611524565b50565b7f000000000000000000000000000000000000000000000000000000000000000081565b6000600260149054906101000a900460ff16905090565b61043c6113fa565b6104466000611524565b565b6104506113fa565b6104586113b0565b6104606115ea565b565b6000606080600080600060606104a260007f000000000000000000000000000000000000000000000000000000000000000061164d90919063ffffffff16565b6104d660017f000000000000000000000000000000000000000000000000000000000000000061164d90919063ffffffff16565b46306000801b600067ffffffffffffffff8111156104f7576104f6612aa6565b5b6040519080825280602002602001820160405280156105255781602001602082028036833780820191505090505b507f0f00000000000000000000000000000000000000000000000000000000000000959493929190965096509650965096509650965090919293949596565b6000600260009054906101000a900473ffffffffffffffffffffffffffffffffffffffff16905090565b60008061059b84846116fd565b90508091505092915050565b6105af6113b0565b6105b833611899565b6105f7576040517f08c379a00000000000000000000000000000000000000000000000000000000081526004016105ee90612d28565b60405180910390fd5b61060182826116fd565b610640576040517f08c379a000000000000000000000000000000000000000000000000000000000815260040161063790612d94565b60405180910390fd5b7f000000000000000000000000000000000000000000000000000000000000000073ffffffffffffffffffffffffffffffffffffffff1663d505accf83600001602081019061068f919061248a565b30856040013586606001600001358760600160200160000160208101906106b69190612db4565b886060016020016020013589606001602001604001356040518863ffffffff1660e01b81526004016106ee9796959493929190612df0565b600060405180830381600087803b15801561070857600080fd5b505af115801561071c573d6000803e3d6000fd5b505050507f000000000000000000000000000000000000000000000000000000000000000073ffffffffffffffffffffffffffffffffffffffff166323b872dd83600001602081019061076f919061248a565b3085604001356040518463ffffffff1660e01b815260040161079393929190612e5f565b6020604051808303816000875af11580156107b2573d6000803e3d6000fd5b505050506040513d601f19601f820116820180604052508101906107d69190612ec2565b507f000000000000000000000000000000000000000000000000000000000000000073ffffffffffffffffffffffffffffffffffffffff1663ba087652836040013530306040518463ffffffff1660e01b815260040161083893929190612eef565b6020604051808303816000875af1158015610857573d6000803e3d6000fd5b505050506040513d601f19601f8201168201806040525081019061087b9190612f3b565b50610884611943565b60007f000000000000000000000000000000000000000000000000000000000000000073ffffffffffffffffffffffffffffffffffffffff1663ff5bc34b6040518163ffffffff1660e01b8152600401602060405180830381865afa1580156108f1573d6000803e3d6000fd5b505050506040513d601f19601f820116820180604052508101906109159190612f7d565b905060008173ffffffffffffffffffffffffffffffffffffffff166370a08231306040518263ffffffff1660e01b8152600401610952919061277f565b602060405180830381865afa15801561096f573d6000803e3d6000fd5b505050506040513d601f19601f820116820180604052508101906109939190612f3b565b90508173ffffffffffffffffffffffffffffffffffffffff1663095ea7b37f0000000000000000000000000000000000000000000000000000000000000000836040518363ffffffff1660e01b81526004016109f0929190612faa565b6020604051808303816000875af1158015610a0f573d6000803e3d6000fd5b505050506040513d601f19601f82011682018060405250810190610a339190612ec2565b507f000000000000000000000000000000000000000000000000000000000000000073ffffffffffffffffffffffffffffffffffffffff16636e553f6582306040518363ffffffff1660e01b8152600401610a8f929190612fd3565b6020604051808303816000875af1158015610aae573d6000803e3d6000fd5b505050506040513d601f19601f82011682018060405250810190610ad29190612f3b565b507f000000000000000000000000000000000000000000000000000000000000000073ffffffffffffffffffffffffffffffffffffffff1663a9059cbb856020016020810190610b22919061248a565b7f000000000000000000000000000000000000000000000000000000000000000073ffffffffffffffffffffffffffffffffffffffff166370a08231306040518263ffffffff1660e01b8152600401610b7b919061277f565b602060405180830381865afa158015610b98573d6000803e3d6000fd5b505050506040513d601f19601f82011682018060405250810190610bbc9190612f3b565b6040518363ffffffff1660e01b8152600401610bd9929190612faa565b6020604051808303816000875af1158015610bf8573d6000803e3d6000fd5b505050506040513d601f19601f82011682018060405250810190610c1c9190612ec2565b50836020016020810190610c30919061248a565b73ffffffffffffffffffffffffffffffffffffffff16846000016020810190610c59919061248a565b73ffffffffffffffffffffffffffffffffffffffff167f8ed7db30df47fbd87811a5e8a95a94838f0c0241263d9a1865d6a2a3e10516e28660400135604051610ca29190612ffc565b60405180910390a350505050565b610cba82826116fd565b610cf9576040517f08c379a0000000000000000000000000000000000000000000000000000000008152600401610cf090612d94565b60405180910390fd5b7f000000000000000000000000000000000000000000000000000000000000000073ffffffffffffffffffffffffffffffffffffffff1663d505accf836000016020810190610d48919061248a565b3085604001358660600160000135876060016020016000016020810190610d6f9190612db4565b886060016020016020013589606001602001604001356040518863ffffffff1660e01b8152600401610da79796959493929190612df0565b600060405180830381600087803b158015610dc157600080fd5b505af1158015610dd5573d6000803e3d6000fd5b505050507f000000000000000000000000000000000000000000000000000000000000000073ffffffffffffffffffffffffffffffffffffffff166323b872dd836000016020810190610e28919061248a565b3085604001356040518463ffffffff1660e01b8152600401610e4c93929190612e5f565b6020604051808303816000875af1158015610e6b573d6000803e3d6000fd5b505050506040513d601f19601f82011682018060405250810190610e8f9190612ec2565b507f000000000000000000000000000000000000000000000000000000000000000073ffffffffffffffffffffffffffffffffffffffff1663ba087652836040013530306040518463ffffffff1660e01b8152600401610ef193929190612eef565b6020604051808303816000875af1158015610f10573d6000803e3d6000fd5b505050506040513d601f19601f82011682018060405250810190610f349190612f3b565b5060007f000000000000000000000000000000000000000000000000000000000000000073ffffffffffffffffffffffffffffffffffffffff1663ff5bc34b6040518163ffffffff1660e01b8152600401602060405180830381865afa158015610fa2573d6000803e3d6000fd5b505050506040513d601f19601f82011682018060405250810190610fc69190612f7d565b905060008173ffffffffffffffffffffffffffffffffffffffff166370a08231306040518263ffffffff1660e01b8152600401611003919061277f565b602060405180830381865afa158015611020573d6000803e3d6000fd5b505050506040513d601f19601f820116820180604052508101906110449190612f3b565b90508173ffffffffffffffffffffffffffffffffffffffff1663095ea7b37f0000000000000000000000000000000000000000000000000000000000000000836040518363ffffffff1660e01b81526004016110a1929190612faa565b6020604051808303816000875af11580156110c0573d6000803e3d6000fd5b505050506040513d601f19601f820116820180604052508101906110e49190612ec2565b507f000000000000000000000000000000000000000000000000000000000000000073ffffffffffffffffffffffffffffffffffffffff16636e553f6582306040518363ffffffff1660e01b8152600401611140929190612fd3565b6020604051808303816000875af115801561115f573d6000803e3d6000fd5b505050506040513d601f19601f820116820180604052508101906111839190612f3b565b507f000000000000000000000000000000000000000000000000000000000000000073ffffffffffffffffffffffffffffffffffffffff1663a9059cbb8560200160208101906111d3919061248a565b7f000000000000000000000000000000000000000000000000000000000000000073ffffffffffffffffffffffffffffffffffffffff166370a08231306040518263ffffffff1660e01b815260040161122c919061277f565b602060405180830381865afa158015611249573d6000803e3d6000fd5b505050506040513d601f19601f8201168201806040525081019061126d9190612f3b565b6040518363ffffffff1660e01b815260040161128a929190612faa565b6020604051808303816000875af11580156112a9573d6000803e3d6000fd5b505050506040513d601f19601f820116820180604052508101906112cd9190612ec2565b506040517f08c379a00000000000000000000000000000000000000000000000000000000081526004016113009061303a565b60405180910390fd5b6113116113fa565b600073ffffffffffffffffffffffffffffffffffffffff168173ffffffffffffffffffffffffffffffffffffffff1603611380576040517f08c379a0000000000000000000000000000000000000000000000000000000008152600401611377906130cc565b60405180910390fd5b61138981611524565b50565b7f667a8c7f09938d651a2ceb2108bc4cb5496e13b27b76c54d6ef988cede5ae59581565b6113b861041d565b156113f8576040517f08c379a00000000000000000000000000000000000000000000000000000000081526004016113ef90613138565b60405180910390fd5b565b611402611985565b73ffffffffffffffffffffffffffffffffffffffff16611420610564565b73ffffffffffffffffffffffffffffffffffffffff1614611476576040517f08c379a000000000000000000000000000000000000000000000000000000000815260040161146d906131a4565b60405180910390fd5b565b61148061041d565b6114bf576040517f08c379a00000000000000000000000000000000000000000000000000000000081526004016114b690613210565b60405180910390fd5b565b6114c9611478565b6000600260146101000a81548160ff0219169083151502179055507f5db9ee0a495bf2e6ff9c91a7834c1ba4fdd244a5e8aa4e537bd38aeae4b073aa61150d611985565b60405161151a919061277f565b60405180910390a1565b6000600260009054906101000a900473ffffffffffffffffffffffffffffffffffffffff16905081600260006101000a81548173ffffffffffffffffffffffffffffffffffffffff021916908373ffffffffffffffffffffffffffffffffffffffff1602179055508173ffffffffffffffffffffffffffffffffffffffff168173ffffffffffffffffffffffffffffffffffffffff167f8be0079c531659141344cd1fd0a4f28419497f9722a3daafe3b4186f6b6457e060405160405180910390a35050565b6115f26113b0565b6001600260146101000a81548160ff0219169083151502179055507f62e78cea01bee320cd4e420270b5ea74000d11b0c9f74754ebdbfc544b05a258611636611985565b604051611643919061277f565b60405180910390a1565b606060ff60001b831461166a576116638361198d565b90506116f7565b8180546116769061325f565b80601f01602080910402602001604051908101604052809291908181526020018280546116a29061325f565b80156116ef5780601f106116c4576101008083540402835291602001916116ef565b820191906000526020600020905b8154815290600101906020018083116116d257829003601f168201915b505050505090505b92915050565b6000807f000000000000000000000000000000000000000000000000000000000000000073ffffffffffffffffffffffffffffffffffffffff16637ecebe0085600001602081019061174f919061248a565b6040518263ffffffff1660e01b815260040161176b919061277f565b602060405180830381865afa158015611788573d6000803e3d6000fd5b505050506040513d601f19601f820116820180604052508101906117ac9190612f3b565b905060007f667a8c7f09938d651a2ceb2108bc4cb5496e13b27b76c54d6ef988cede5ae5958560200160208101906117e4919061248a565b836040516020016117f793929190613290565b604051602081830303815290604052805190602001209050600061181a82611a01565b90506000611844828760000160208101906118359190612db4565b88602001358960400135611a1b565b9050600087600001602081019061185b919061248a565b73ffffffffffffffffffffffffffffffffffffffff168273ffffffffffffffffffffffffffffffffffffffff16149050809550505050505092915050565b60006101444614806118ac575061011846145b6118f85773abcc9b596420a9e9172fd5938620e265a0f9df9273ffffffffffffffffffffffffffffffffffffffff168273ffffffffffffffffffffffffffffffffffffffff161461193c565b73b16a1dbe755f992636705fdbb3a8678a657eb3ea73ffffffffffffffffffffffffffffffffffffffff168273ffffffffffffffffffffffffffffffffffffffff16145b9050919050565b61198361194e611a46565b611956611a55565b61195e611a64565b73ffffffffffffffffffffffffffffffffffffffff16611a739092919063ffffffff16565b565b600033905090565b6060600061199a83611b04565b90506000602067ffffffffffffffff8111156119b9576119b8612aa6565b5b6040519080825280601f01601f1916602001820160405280156119eb5781602001600182028036833780820191505090505b5090508181528360208201528092505050919050565b6000611a14611a0e611b54565b83611c0b565b9050919050565b6000806000611a2c87878787611c4c565b91509150611a3981611d2e565b8192505050949350505050565b6000611a50611e94565b905090565b6000611a5f611ea3565b905090565b6000611a6e611eaf565b905090565b6000810315611aff5773eeeeeeeeeeeeeeeeeeeeeeeeeeeeeeeeeeeeeeee73ffffffffffffffffffffffffffffffffffffffff168373ffffffffffffffffffffffffffffffffffffffff1614611af357611aee82828573ffffffffffffffffffffffffffffffffffffffff16611ebe9092919063ffffffff16565b611afe565b611afd8282611f44565b5b5b505050565b60008060ff8360001c169050601f811115611b4b576040517fb3512b0c00000000000000000000000000000000000000000000000000000000815260040160405180910390fd5b80915050919050565b60007f000000000000000000000000000000000000000000000000000000000000000073ffffffffffffffffffffffffffffffffffffffff163073ffffffffffffffffffffffffffffffffffffffff16148015611bd057507f000000000000000000000000000000000000000000000000000000000000000046145b15611bfd577f00000000000000000000000000000000000000000000000000000000000000009050611c08565b611c05612038565b90505b90565b60006040517f190100000000000000000000000000000000000000000000000000000000000081528360028201528260228201526042812091505092915050565b6000807f7fffffffffffffffffffffffffffffff5d576e7357a4501ddfe92f46681b20a08360001c1115611c87576000600391509150611d25565b600060018787878760405160008152602001604052604051611cac94939291906132c7565b6020604051602081039080840390855afa158015611cce573d6000803e3d6000fd5b505050602060405103519050600073ffffffffffffffffffffffffffffffffffffffff168173ffffffffffffffffffffffffffffffffffffffff1603611d1c57600060019250925050611d25565b80600092509250505b94509492505050565b60006004811115611d4257611d4161330c565b5b816004811115611d5557611d5461330c565b5b0315611e915760016004811115611d6f57611d6e61330c565b5b816004811115611d8257611d8161330c565b5b03611dc2576040517f08c379a0000000000000000000000000000000000000000000000000000000008152600401611db990613387565b60405180910390fd5b60026004811115611dd657611dd561330c565b5b816004811115611de957611de861330c565b5b03611e29576040517f08c379a0000000000000000000000000000000000000000000000000000000008152600401611e20906133f3565b60405180910390fd5b60036004811115611e3d57611e3c61330c565b5b816004811115611e5057611e4f61330c565b5b03611e90576040517f08c379a0000000000000000000000000000000000000000000000000000000008152600401611e8790613485565b60405180910390fd5b5b50565b6000604836033560601c905090565b60006020360335905090565b6000603436033560601c905090565b611f3f8363a9059cbb60e01b8484604051602401611edd929190612faa565b604051602081830303815290604052907bffffffffffffffffffffffffffffffffffffffffffffffffffffffff19166020820180517bffffffffffffffffffffffffffffffffffffffffffffffffffffffff83818316178352505050506120ce565b505050565b80471015611f87576040517f08c379a0000000000000000000000000000000000000000000000000000000008152600401611f7e906134f1565b60405180910390fd5b60008273ffffffffffffffffffffffffffffffffffffffff1682604051611fad90613542565b60006040518083038185875af1925050503d8060008114611fea576040519150601f19603f3d011682016040523d82523d6000602084013e611fef565b606091505b5050905080612033576040517f08c379a000000000000000000000000000000000000000000000000000000000815260040161202a906135c9565b60405180910390fd5b505050565b60007f8b73c3c69bb8fe3d512ecc4cf759cc79239f7b179b0ffacaa9a75d522b39400f7f00000000000000000000000000000000000000000000000000000000000000007f000000000000000000000000000000000000000000000000000000000000000046306040516020016120b39594939291906135e9565b60405160208183030381529060405280519060200120905090565b6000612130826040518060400160405280602081526020017f5361666545524332303a206c6f772d6c6576656c2063616c6c206661696c65648152508573ffffffffffffffffffffffffffffffffffffffff166121969092919063ffffffff16565b90506000815114806121525750808060200190518101906121519190612ec2565b5b612191576040517f08c379a0000000000000000000000000000000000000000000000000000000008152600401612188906136ae565b60405180910390fd5b505050565b60606121a584846000856121ae565b90509392505050565b6060824710156121f3576040517f08c379a00000000000000000000000000000000000000000000000000000000081526004016121ea90613740565b60405180910390fd5b6000808673ffffffffffffffffffffffffffffffffffffffff16858760405161221c919061379c565b60006040518083038185875af1925050503d8060008114612259576040519150601f19603f3d011682016040523d82523d6000602084013e61225e565b606091505b509150915061226f8783838761227b565b92505050949350505050565b606083156122dd5760008351036122d557612295856122f0565b6122d4576040517f08c379a00000000000000000000000000000000000000000000000000000000081526004016122cb906137ff565b60405180910390fd5b5b8290506122e8565b6122e78383612313565b5b949350505050565b6000808273ffffffffffffffffffffffffffffffffffffffff163b119050919050565b6000825111156123265781518083602001fd5b806040517f08c379a000000000000000000000000000000000000000000000000000000000815260040161235a919061381f565b60405180910390fd5b6000604051905090565b600080fd5b600080fd5b600060e0828403121561238d5761238c612372565b5b81905092915050565b6000606082840312156123ac576123ab612372565b5b81905092915050565b60008061014083850312156123cd576123cc61236d565b5b60006123db85828601612377565b92505060e06123ec85828601612396565b9150509250929050565b60008115159050919050565b61240b816123f6565b82525050565b60006020820190506124266000830184612402565b92915050565b600073ffffffffffffffffffffffffffffffffffffffff82169050919050565b60006124578261242c565b9050919050565b6124678161244c565b811461247257600080fd5b50565b6000813590506124848161245e565b92915050565b6000602082840312156124a05761249f61236d565b5b60006124ae84828501612475565b91505092915050565b6000819050919050565b60006124dc6124d76124d28461242c565b6124b7565b61242c565b9050919050565b60006124ee826124c1565b9050919050565b6000612500826124e3565b9050919050565b612510816124f5565b82525050565b600060208201905061252b6000830184612507565b92915050565b60007fff0000000000000000000000000000000000000000000000000000000000000082169050919050565b61256681612531565b82525050565b600081519050919050565b600082825260208201905092915050565b60005b838110156125a657808201518184015260208101905061258b565b60008484015250505050565b6000601f19601f8301169050919050565b60006125ce8261256c565b6125d88185612577565b93506125e8818560208601612588565b6125f1816125b2565b840191505092915050565b6000819050919050565b61260f816125fc565b82525050565b61261e8161244c565b82525050565b6000819050919050565b61263781612624565b82525050565b600081519050919050565b600082825260208201905092915050565b6000819050602082019050919050565b612672816125fc565b82525050565b60006126848383612669565b60208301905092915050565b6000602082019050919050565b60006126a88261263d565b6126b28185612648565b93506126bd83612659565b8060005b838110156126ee5781516126d58882612678565b97506126e083612690565b9250506001810190506126c1565b5085935050505092915050565b600060e082019050612710600083018a61255d565b818103602083015261272281896125c3565b9050818103604083015261273681886125c3565b90506127456060830187612606565b6127526080830186612615565b61275f60a083018561262e565b81810360c0830152612771818461269d565b905098975050505050505050565b60006020820190506127946000830184612615565b92915050565b60006020820190506127af600083018461262e565b92915050565b60006127c46020840184612475565b905092915050565b6127d58161244c565b82525050565b6127e4816125fc565b81146127ef57600080fd5b50565b600081359050612801816127db565b92915050565b600061281660208401846127f2565b905092915050565b600082905092915050565b600082905092915050565b600060ff82169050919050565b61284a81612834565b811461285557600080fd5b50565b60008135905061286781612841565b92915050565b600061287c6020840184612858565b905092915050565b61288d81612834565b82525050565b61289c81612624565b81146128a757600080fd5b50565b6000813590506128b981612893565b92915050565b60006128ce60208401846128aa565b905092915050565b6128df81612624565b82525050565b606082016128f6600083018361286d565b6129036000850182612884565b5061291160208301836128bf565b61291e60208501826128d6565b5061292c60408301836128bf565b61293960408501826128d6565b50505050565b608082016129506000830183612807565b61295d6000850182612669565b5061296b6020830183612829565b61297860208501826128e5565b50505050565b60e0820161298f60008301836127b5565b61299c60008501826127cc565b506129aa60208301836127b5565b6129b760208501826127cc565b506129c56040830183612807565b6129d26040850182612669565b506129e0606083018361281e565b6129ed606085018261293f565b50505050565b60608201612a04600083018361286d565b612a116000850182612884565b50612a1f60208301836128bf565b612a2c60208501826128d6565b50612a3a60408301836128bf565b612a4760408501826128d6565b50505050565b600061014082019050612a63600083018561297e565b612a7060e08301846129f3565b9392505050565b60008160e01c9050919050565b600060033d1115612aa35760046000803e612aa0600051612a77565b90505b90565b7f4e487b7100000000000000000000000000000000000000000000000000000000600052604160045260246000fd5b612ade826125b2565b810181811067ffffffffffffffff82111715612afd57612afc612aa6565b5b80604052505050565b600060443d10612b9357612b18612363565b60043d036004823e80513d602482011167ffffffffffffffff82111715612b40575050612b93565b808201805167ffffffffffffffff811115612b5e5750505050612b93565b80602083010160043d038501811115612b7b575050505050612b93565b612b8a82602001850186612ad5565b82955050505050505b90565b600081905092915050565b7f466c6173683a20766572696669636174696f6e20636f6d706c65746500000000600082015250565b6000612bd7601c83612b96565b9150612be282612ba1565b601c82019050919050565b6000612bf882612bca565b9150819050919050565b6000612c0d8261256c565b612c178185612b96565b9350612c27818560208601612588565b80840191505092915050565b6000612c3f8284612c02565b915081905092915050565b7f466c6173683a2076657269667944617461526576657274696e6720646964206e60008201527f6f74207265766572740000000000000000000000000000000000000000000000602082015250565b6000612ca6602983612577565b9150612cb182612c4a565b604082019050919050565b60006020820190508181036000830152612cd581612c99565b9050919050565b7f6f6e6c7947656c61746f52656c61790000000000000000000000000000000000600082015250565b6000612d12600f83612577565b9150612d1d82612cdc565b602082019050919050565b60006020820190508181036000830152612d4181612d05565b9050919050565b7f466c6173683a20696e76616c6964207369676e61747572650000000000000000600082015250565b6000612d7e601883612577565b9150612d8982612d48565b602082019050919050565b60006020820190508181036000830152612dad81612d71565b9050919050565b600060208284031215612dca57612dc961236d565b5b6000612dd884828501612858565b91505092915050565b612dea81612834565b82525050565b600060e082019050612e05600083018a612615565b612e126020830189612615565b612e1f6040830188612606565b612e2c6060830187612606565b612e396080830186612de1565b612e4660a083018561262e565b612e5360c083018461262e565b98975050505050505050565b6000606082019050612e746000830186612615565b612e816020830185612615565b612e8e6040830184612606565b949350505050565b612e9f816123f6565b8114612eaa57600080fd5b50565b600081519050612ebc81612e96565b92915050565b600060208284031215612ed857612ed761236d565b5b6000612ee684828501612ead565b91505092915050565b6000606082019050612f046000830186612606565b612f116020830185612615565b612f1e6040830184612615565b949350505050565b600081519050612f35816127db565b92915050565b600060208284031215612f5157612f5061236d565b5b6000612f5f84828501612f26565b91505092915050565b600081519050612f778161245e565b92915050565b600060208284031215612f9357612f9261236d565b5b6000612fa184828501612f68565b91505092915050565b6000604082019050612fbf6000830185612615565b612fcc6020830184612606565b9392505050565b6000604082019050612fe86000830185612606565b612ff56020830184612615565b9392505050565b60006020820190506130116000830184612606565b92915050565b6000613024601c83612577565b915061302f82612ba1565b602082019050919050565b6000602082019050818103600083015261305381613017565b9050919050565b7f4f776e61626c653a206e6577206f776e657220697320746865207a65726f206160008201527f6464726573730000000000000000000000000000000000000000000000000000602082015250565b60006130b6602683612577565b91506130c18261305a565b604082019050919050565b600060208201905081810360008301526130e5816130a9565b9050919050565b7f5061757361626c653a2070617573656400000000000000000000000000000000600082015250565b6000613122601083612577565b915061312d826130ec565b602082019050919050565b6000602082019050818103600083015261315181613115565b9050919050565b7f4f776e61626c653a2063616c6c6572206973206e6f7420746865206f776e6572600082015250565b600061318e602083612577565b915061319982613158565b602082019050919050565b600060208201905081810360008301526131bd81613181565b9050919050565b7f5061757361626c653a206e6f7420706175736564000000000000000000000000600082015250565b60006131fa601483612577565b9150613205826131c4565b602082019050919050565b60006020820190508181036000830152613229816131ed565b9050919050565b7f4e487b7100000000000000000000000000000000000000000000000000000000600052602260045260246000fd5b6000600282049050600182168061327757607f821691505b60208210810361328a57613289613230565b5b50919050565b60006060820190506132a5600083018661262e565b6132b26020830185612615565b6132bf6040830184612606565b949350505050565b60006080820190506132dc600083018761262e565b6132e96020830186612de1565b6132f6604083018561262e565b613303606083018461262e565b95945050505050565b7f4e487b7100000000000000000000000000000000000000000000000000000000600052602160045260246000fd5b7f45434453413a20696e76616c6964207369676e61747572650000000000000000600082015250565b6000613371601883612577565b915061337c8261333b565b602082019050919050565b600060208201905081810360008301526133a081613364565b9050919050565b7f45434453413a20696e76616c6964207369676e6174757265206c656e67746800600082015250565b60006133dd601f83612577565b91506133e8826133a7565b602082019050919050565b6000602082019050818103600083015261340c816133d0565b9050919050565b7f45434453413a20696e76616c6964207369676e6174757265202773272076616c60008201527f7565000000000000000000000000000000000000000000000000000000000000602082015250565b600061346f602283612577565b915061347a82613413565b604082019050919050565b6000602082019050818103600083015261349e81613462565b9050919050565b7f416464726573733a20696e73756666696369656e742062616c616e6365000000600082015250565b60006134db601d83612577565b91506134e6826134a5565b602082019050919050565b6000602082019050818103600083015261350a816134ce565b9050919050565b600081905092915050565b50565b600061352c600083613511565b91506135378261351c565b600082019050919050565b600061354d8261351f565b9150819050919050565b7f416464726573733a20756e61626c6520746f2073656e642076616c75652c207260008201527f6563697069656e74206d61792068617665207265766572746564000000000000602082015250565b60006135b3603a83612577565b91506135be82613557565b604082019050919050565b600060208201905081810360008301526135e2816135a6565b9050919050565b600060a0820190506135fe600083018861262e565b61360b602083018761262e565b613618604083018661262e565b6136256060830185612606565b6136326080830184612615565b9695505050505050565b7f5361666545524332303a204552433230206f7065726174696f6e20646964206e60008201527f6f74207375636365656400000000000000000000000000000000000000000000602082015250565b6000613698602a83612577565b91506136a38261363c565b604082019050919050565b600060208201905081810360008301526136c78161368b565b9050919050565b7f416464726573733a20696e73756666696369656e742062616c616e636520666f60008201527f722063616c6c0000000000000000000000000000000000000000000000000000602082015250565b600061372a602683612577565b9150613735826136ce565b604082019050919050565b600060208201905081810360008301526137598161371d565b9050919050565b600081519050919050565b600061377682613760565b6137808185613511565b9350613790818560208601612588565b80840191505092915050565b60006137a8828461376b565b915081905092915050565b7f416464726573733a2063616c6c20746f206e6f6e2d636f6e7472616374000000600082015250565b60006137e9601d83612577565b91506137f4826137b3565b602082019050919050565b60006020820190508181036000830152613818816137dc565b9050919050565b6000602082019050818103600083015261383981846125c3565b90509291505056fea2646970667358221220257c1766907a5f8582ba978dfc769c86ec7758110a9233df1cbddff1d538fc8964736f6c63430008140033",
  "devdoc": {
    "events": {
      "EIP712DomainChanged()": {
        "details": "MAY be emitted to signal that the domain could have changed."
      },
      "Paused(address)": {
        "details": "Emitted when the pause is triggered by `account`."
      },
      "Unpaused(address)": {
        "details": "Emitted when the pause is lifted by `account`."
      }
    },
    "kind": "dev",
    "methods": {
      "eip712Domain()": {
        "details": "See {EIP-5267}. _Available since v4.9._"
      },
      "owner()": {
        "details": "Returns the address of the current owner."
      },
      "paused()": {
        "details": "Returns true if the contract is paused, and false otherwise."
      },
      "renounceOwnership()": {
        "details": "Leaves the contract without owner. It will not be possible to call `onlyOwner` functions. Can only be called by the current owner. NOTE: Renouncing ownership will leave the contract without an owner, thereby disabling any functionality that is only available to the owner."
      },
      "transferOwnership(address)": {
        "details": "Transfers ownership of the contract to a new account (`newOwner`). Can only be called by the current owner."
      }
    },
    "version": 1
  },
  "userdoc": {
    "kind": "user",
    "methods": {},
    "version": 1
  },
  "storageLayout": {
    "storage": [
      {
        "astId": 2397,
        "contract": "contracts/Flash.sol:Flash",
        "label": "_nameFallback",
        "offset": 0,
        "slot": "0",
        "type": "t_string_storage"
      },
      {
        "astId": 2399,
        "contract": "contracts/Flash.sol:Flash",
        "label": "_versionFallback",
        "offset": 0,
        "slot": "1",
        "type": "t_string_storage"
      },
      {
        "astId": 363,
        "contract": "contracts/Flash.sol:Flash",
        "label": "_owner",
        "offset": 0,
        "slot": "2",
        "type": "t_address"
      },
      {
        "astId": 511,
        "contract": "contracts/Flash.sol:Flash",
        "label": "_paused",
        "offset": 20,
        "slot": "2",
        "type": "t_bool"
      }
    ],
    "types": {
      "t_address": {
        "encoding": "inplace",
        "label": "address",
        "numberOfBytes": "20"
      },
      "t_bool": {
        "encoding": "inplace",
        "label": "bool",
        "numberOfBytes": "1"
      },
      "t_string_storage": {
        "encoding": "bytes",
        "label": "string",
        "numberOfBytes": "32"
      }
    }
  }
}