{
  "address": "0x81009f68BD9744218E0283E2910bdc63955aC145",
  "abi": [
    {
      "inputs": [
        {
          "internalType": "contract ISDai",
          "name": "_sdai",
          "type": "address"
        }
      ],
      "stateMutability": "nonpayable",
      "type": "constructor"
    },
    {
      "inputs": [],
      "name": "InvalidShortString",
      "type": "error"
    },
    {
      "inputs": [
        {
          "internalType": "string",
          "name": "str",
          "type": "string"
        }
      ],
      "name": "StringTooLong",
      "type": "error"
    },
    {
      "anonymous": false,
      "inputs": [],
      "name": "EIP712DomainChanged",
      "type": "event"
    },
    {
      "anonymous": false,
      "inputs": [
        {
          "indexed": true,
          "internalType": "address",
          "name": "previousOwner",
          "type": "address"
        },
        {
          "indexed": true,
          "internalType": "address",
          "name": "newOwner",
          "type": "address"
        }
      ],
      "name": "OwnershipTransferred",
      "type": "event"
    },
    {
      "anonymous": false,
      "inputs": [
        {
          "indexed": false,
          "internalType": "address",
          "name": "account",
          "type": "address"
        }
      ],
      "name": "Paused",
      "type": "event"
    },
    {
      "anonymous": false,
      "inputs": [
        {
          "indexed": true,
          "internalType": "address",
          "name": "from",
          "type": "address"
        },
        {
          "indexed": true,
          "internalType": "address",
          "name": "to",
          "type": "address"
        },
        {
          "indexed": false,
          "internalType": "uint256",
          "name": "amount",
          "type": "uint256"
        }
      ],
      "name": "Payment",
      "type": "event"
    },
    {
      "anonymous": false,
      "inputs": [
        {
          "indexed": false,
          "internalType": "address",
          "name": "account",
          "type": "address"
        }
      ],
      "name": "Unpaused",
      "type": "event"
    },
    {
      "inputs": [],
      "name": "PAY_TYPEHASH",
      "outputs": [
        {
          "internalType": "bytes32",
          "name": "",
          "type": "bytes32"
        }
      ],
      "stateMutability": "view",
      "type": "function"
    },
    {
      "inputs": [],
      "name": "eip712Domain",
      "outputs": [
        {
          "internalType": "bytes1",
          "name": "fields",
          "type": "bytes1"
        },
        {
          "internalType": "string",
          "name": "name",
          "type": "string"
        },
        {
          "internalType": "string",
          "name": "version",
          "type": "string"
        },
        {
          "internalType": "uint256",
          "name": "chainId",
          "type": "uint256"
        },
        {
          "internalType": "address",
          "name": "verifyingContract",
          "type": "address"
        },
        {
          "internalType": "bytes32",
          "name": "salt",
          "type": "bytes32"
        },
        {
          "internalType": "uint256[]",
          "name": "extensions",
          "type": "uint256[]"
        }
      ],
      "stateMutability": "view",
      "type": "function"
    },
    {
      "inputs": [],
      "name": "owner",
      "outputs": [
        {
          "internalType": "address",
          "name": "",
          "type": "address"
        }
      ],
      "stateMutability": "view",
      "type": "function"
    },
    {
      "inputs": [],
      "name": "pause",
      "outputs": [],
      "stateMutability": "nonpayable",
      "type": "function"
    },
    {
      "inputs": [],
      "name": "paused",
      "outputs": [
        {
          "internalType": "bool",
          "name": "",
          "type": "bool"
        }
      ],
      "stateMutability": "view",
      "type": "function"
    },
    {
      "inputs": [
        {
          "components": [
            {
              "internalType": "address",
              "name": "from",
              "type": "address"
            },
            {
              "internalType": "address",
              "name": "to",
              "type": "address"
            },
            {
              "internalType": "uint256",
              "name": "amount",
              "type": "uint256"
            },
            {
              "components": [
                {
                  "internalType": "uint256",
                  "name": "deadline",
                  "type": "uint256"
                },
                {
                  "components": [
                    {
                      "internalType": "uint8",
                      "name": "v",
                      "type": "uint8"
                    },
                    {
                      "internalType": "bytes32",
                      "name": "r",
                      "type": "bytes32"
                    },
                    {
                      "internalType": "bytes32",
                      "name": "s",
                      "type": "bytes32"
                    }
                  ],
                  "internalType": "struct Flash.Signature",
                  "name": "signature",
                  "type": "tuple"
                }
              ],
              "internalType": "struct Flash.PermitData",
              "name": "permitData",
              "type": "tuple"
            }
          ],
          "internalType": "struct Flash.PaymentData",
          "name": "_paymentData",
          "type": "tuple"
        },
        {
          "components": [
            {
              "internalType": "uint8",
              "name": "v",
              "type": "uint8"
            },
            {
              "internalType": "bytes32",
              "name": "r",
              "type": "bytes32"
            },
            {
              "internalType": "bytes32",
              "name": "s",
              "type": "bytes32"
            }
          ],
          "internalType": "struct Flash.Signature",
          "name": "_signature",
          "type": "tuple"
        }
      ],
      "name": "pay",
      "outputs": [],
      "stateMutability": "nonpayable",
      "type": "function"
    },
    {
      "inputs": [],
      "name": "renounceOwnership",
      "outputs": [],
      "stateMutability": "nonpayable",
      "type": "function"
    },
    {
      "inputs": [],
      "name": "sdai",
      "outputs": [
        {
          "internalType": "contract ISDai",
          "name": "",
          "type": "address"
        }
      ],
      "stateMutability": "view",
      "type": "function"
    },
    {
      "inputs": [
        {
          "internalType": "address",
          "name": "_newOwner",
          "type": "address"
        }
      ],
      "name": "transferOwner",
      "outputs": [],
      "stateMutability": "nonpayable",
      "type": "function"
    },
    {
      "inputs": [
        {
          "internalType": "address",
          "name": "newOwner",
          "type": "address"
        }
      ],
      "name": "transferOwnership",
      "outputs": [],
      "stateMutability": "nonpayable",
      "type": "function"
    },
    {
      "inputs": [],
      "name": "unpause",
      "outputs": [],
      "stateMutability": "nonpayable",
      "type": "function"
    },
    {
      "inputs": [
        {
          "components": [
            {
              "internalType": "address",
              "name": "from",
              "type": "address"
            },
            {
              "internalType": "address",
              "name": "to",
              "type": "address"
            },
            {
              "internalType": "uint256",
              "name": "amount",
              "type": "uint256"
            },
            {
              "components": [
                {
                  "internalType": "uint256",
                  "name": "deadline",
                  "type": "uint256"
                },
                {
                  "components": [
                    {
                      "internalType": "uint8",
                      "name": "v",
                      "type": "uint8"
                    },
                    {
                      "internalType": "bytes32",
                      "name": "r",
                      "type": "bytes32"
                    },
                    {
                      "internalType": "bytes32",
                      "name": "s",
                      "type": "bytes32"
                    }
                  ],
                  "internalType": "struct Flash.Signature",
                  "name": "signature",
                  "type": "tuple"
                }
              ],
              "internalType": "struct Flash.PermitData",
              "name": "permitData",
              "type": "tuple"
            }
          ],
          "internalType": "struct Flash.PaymentData",
          "name": "_paymentData",
          "type": "tuple"
        },
        {
          "components": [
            {
              "internalType": "uint8",
              "name": "v",
              "type": "uint8"
            },
            {
              "internalType": "bytes32",
              "name": "r",
              "type": "bytes32"
            },
            {
              "internalType": "bytes32",
              "name": "s",
              "type": "bytes32"
            }
          ],
          "internalType": "struct Flash.Signature",
          "name": "_signature",
          "type": "tuple"
        }
      ],
      "name": "verifyData",
      "outputs": [
        {
          "internalType": "bool",
          "name": "",
          "type": "bool"
        }
      ],
      "stateMutability": "nonpayable",
      "type": "function"
    },
    {
      "inputs": [
        {
          "components": [
            {
              "internalType": "address",
              "name": "from",
              "type": "address"
            },
            {
              "internalType": "address",
              "name": "to",
              "type": "address"
            },
            {
              "internalType": "uint256",
              "name": "amount",
              "type": "uint256"
            },
            {
              "components": [
                {
                  "internalType": "uint256",
                  "name": "deadline",
                  "type": "uint256"
                },
                {
                  "components": [
                    {
                      "internalType": "uint8",
                      "name": "v",
                      "type": "uint8"
                    },
                    {
                      "internalType": "bytes32",
                      "name": "r",
                      "type": "bytes32"
                    },
                    {
                      "internalType": "bytes32",
                      "name": "s",
                      "type": "bytes32"
                    }
                  ],
                  "internalType": "struct Flash.Signature",
                  "name": "signature",
                  "type": "tuple"
                }
              ],
              "internalType": "struct Flash.PermitData",
              "name": "permitData",
              "type": "tuple"
            }
          ],
          "internalType": "struct Flash.PaymentData",
          "name": "_paymentData",
          "type": "tuple"
        },
        {
          "components": [
            {
              "internalType": "uint8",
              "name": "v",
              "type": "uint8"
            },
            {
              "internalType": "bytes32",
              "name": "r",
              "type": "bytes32"
            },
            {
              "internalType": "bytes32",
              "name": "s",
              "type": "bytes32"
            }
          ],
          "internalType": "struct Flash.Signature",
          "name": "_signature",
          "type": "tuple"
        }
      ],
      "name": "verifyDataReverting",
      "outputs": [],
      "stateMutability": "nonpayable",
      "type": "function"
    },
    {
      "inputs": [
        {
          "components": [
            {
              "internalType": "address",
              "name": "from",
              "type": "address"
            },
            {
              "internalType": "address",
              "name": "to",
              "type": "address"
            },
            {
              "internalType": "uint256",
              "name": "amount",
              "type": "uint256"
            },
            {
              "components": [
                {
                  "internalType": "uint256",
                  "name": "deadline",
                  "type": "uint256"
                },
                {
                  "components": [
                    {
                      "internalType": "uint8",
                      "name": "v",
                      "type": "uint8"
                    },
                    {
                      "internalType": "bytes32",
                      "name": "r",
                      "type": "bytes32"
                    },
                    {
                      "internalType": "bytes32",
                      "name": "s",
                      "type": "bytes32"
                    }
                  ],
                  "internalType": "struct Flash.Signature",
                  "name": "signature",
                  "type": "tuple"
                }
              ],
              "internalType": "struct Flash.PermitData",
              "name": "permitData",
              "type": "tuple"
            }
          ],
          "internalType": "struct Flash.PaymentData",
          "name": "_paymentData",
          "type": "tuple"
        },
        {
          "components": [
            {
              "internalType": "uint8",
              "name": "v",
              "type": "uint8"
            },
            {
              "internalType": "bytes32",
              "name": "r",
              "type": "bytes32"
            },
            {
              "internalType": "bytes32",
              "name": "s",
              "type": "bytes32"
            }
          ],
          "internalType": "struct Flash.Signature",
          "name": "_signature",
          "type": "tuple"
        }
      ],
      "name": "verifySignature",
      "outputs": [
        {
          "internalType": "bool",
          "name": "",
          "type": "bool"
        }
      ],
      "stateMutability": "view",
      "type": "function"
    }
  ],
  "transactionHash": "0xf8886c90378523c2adb6b6e9744eb088c0d56aee6344f43ee119f3548e1a1a1a",
  "args": [
    "0xaf204776c7245bF4147c2612BF6e5972Ee483701"
  ],
  "numDeployments": 1,
  "solcInputHash": "81cc4cfba01b31870759cc69bb443ab7",
  "bytecode": "0x6101806040523480156200001257600080fd5b506040516200426d3803806200426d833981810160405281019062000038919062000443565b6040518060400160405280600581526020017f466c6173680000000000000000000000000000000000000000000000000000008152506040518060400160405280600181526020017f3100000000000000000000000000000000000000000000000000000000000000815250620000ba600083620001cb60201b90919060201c565b6101208181525050620000d8600182620001cb60201b90919060201c565b6101408181525050818051906020012060e08181525050808051906020012061010081815250504660a08181525050620001176200022360201b60201c565b608081815250503073ffffffffffffffffffffffffffffffffffffffff1660c08173ffffffffffffffffffffffffffffffffffffffff1681525050505062000174620001686200028060201b60201c565b6200028860201b60201c565b6000600260146101000a81548160ff0219169083151502179055508073ffffffffffffffffffffffffffffffffffffffff166101608173ffffffffffffffffffffffffffffffffffffffff168152505050620009c5565b6000602083511015620001f157620001e9836200034e60201b60201c565b90506200021d565b826200020383620003bb60201b60201c565b6000019081620002149190620006ef565b5060ff60001b90505b92915050565b60007f8b73c3c69bb8fe3d512ecc4cf759cc79239f7b179b0ffacaa9a75d522b39400f60e0516101005146306040516020016200026595949392919062000813565b60405160208183030381529060405280519060200120905090565b600033905090565b6000600260009054906101000a900473ffffffffffffffffffffffffffffffffffffffff16905081600260006101000a81548173ffffffffffffffffffffffffffffffffffffffff021916908373ffffffffffffffffffffffffffffffffffffffff1602179055508173ffffffffffffffffffffffffffffffffffffffff168173ffffffffffffffffffffffffffffffffffffffff167f8be0079c531659141344cd1fd0a4f28419497f9722a3daafe3b4186f6b6457e060405160405180910390a35050565b600080829050601f815111156200039e57826040517f305a27a9000000000000000000000000000000000000000000000000000000008152600401620003959190620008ff565b60405180910390fd5b805181620003ac9062000955565b60001c1760001b915050919050565b6000819050919050565b600080fd5b600073ffffffffffffffffffffffffffffffffffffffff82169050919050565b6000620003f782620003ca565b9050919050565b60006200040b82620003ea565b9050919050565b6200041d81620003fe565b81146200042957600080fd5b50565b6000815190506200043d8162000412565b92915050565b6000602082840312156200045c576200045b620003c5565b5b60006200046c848285016200042c565b91505092915050565b600081519050919050565b7f4e487b7100000000000000000000000000000000000000000000000000000000600052604160045260246000fd5b7f4e487b7100000000000000000000000000000000000000000000000000000000600052602260045260246000fd5b60006002820490506001821680620004f757607f821691505b6020821081036200050d576200050c620004af565b5b50919050565b60008190508160005260206000209050919050565b60006020601f8301049050919050565b600082821b905092915050565b600060088302620005777fffffffffffffffffffffffffffffffffffffffffffffffffffffffffffffffff8262000538565b62000583868362000538565b95508019841693508086168417925050509392505050565b6000819050919050565b6000819050919050565b6000620005d0620005ca620005c4846200059b565b620005a5565b6200059b565b9050919050565b6000819050919050565b620005ec83620005af565b62000604620005fb82620005d7565b84845462000545565b825550505050565b600090565b6200061b6200060c565b62000628818484620005e1565b505050565b5b8181101562000650576200064460008262000611565b6001810190506200062e565b5050565b601f8211156200069f57620006698162000513565b620006748462000528565b8101602085101562000684578190505b6200069c620006938562000528565b8301826200062d565b50505b505050565b600082821c905092915050565b6000620006c460001984600802620006a4565b1980831691505092915050565b6000620006df8383620006b1565b9150826002028217905092915050565b620006fa8262000475565b67ffffffffffffffff81111562000716576200071562000480565b5b620007228254620004de565b6200072f82828562000654565b600060209050601f83116001811462000767576000841562000752578287015190505b6200075e8582620006d1565b865550620007ce565b601f198416620007778662000513565b60005b82811015620007a1578489015182556001820191506020850194506020810190506200077a565b86831015620007c15784890151620007bd601f891682620006b1565b8355505b6001600288020188555050505b505050505050565b6000819050919050565b620007eb81620007d6565b82525050565b620007fc816200059b565b82525050565b6200080d81620003ea565b82525050565b600060a0820190506200082a6000830188620007e0565b620008396020830187620007e0565b620008486040830186620007e0565b620008576060830185620007f1565b62000866608083018462000802565b9695505050505050565b600082825260208201905092915050565b60005b83811015620008a157808201518184015260208101905062000884565b60008484015250505050565b6000601f19601f8301169050919050565b6000620008cb8262000475565b620008d7818562000870565b9350620008e981856020860162000881565b620008f481620008ad565b840191505092915050565b600060208201905081810360008301526200091b8184620008be565b905092915050565b600081519050919050565b6000819050602082019050919050565b60006200094c8251620007d6565b80915050919050565b6000620009628262000923565b826200096e846200092e565b90506200097b816200093e565b92506020821015620009be57620009b97fffffffffffffffffffffffffffffffffffffffffffffffffffffffffffffffff8360200360080262000538565b831692505b5050919050565b60805160a05160c05160e051610100516101205161014051610160516137d262000a9b600039600081816103fb0152818161064201528181610722015281816107d9015281816108880152818161091901528181610a3101528181610a8001528181610c5601528181610d3601528181610ded01528181610e9401528181610fbf01528181611042015281816110e101528181611130015261165d015260006104a90152600061047501526000611fd901526000611fb801526000611ab301526000611b0901526000611b3201526137d26000f3fe608060405234801561001057600080fd5b50600436106100ea5760003560e01c806384b0196e1161008c578063b353fe8911610066578063b353fe8914610207578063b6d316c814610223578063f2fde38b1461023f578063f3e9e6e81461025b576100ea565b806384b0196e146101955780638da5cb5b146101b957806394cc893f146101d7576100ea565b80635b2eeca4116100c85780635b2eeca4146101455780635c975abb14610163578063715018a6146101815780638456cb591461018b576100ea565b80633ae60951146100ef5780633f4ba83a1461011f5780634fb2e45d14610129575b600080fd5b61010960048036038101906101049190612310565b610279565b604051610116919061236c565b60405180910390f35b6101276103cb565b005b610143600480360381019061013e91906123e5565b6103e5565b005b61014d6103f9565b60405161015a9190612471565b60405180910390f35b61016b61041d565b604051610178919061236c565b60405180910390f35b610189610434565b005b610193610448565b005b61019d610462565b6040516101b09796959493929190612656565b60405180910390f35b6101c1610564565b6040516101ce91906126da565b60405180910390f35b6101f160048036038101906101ec9190612310565b61058e565b6040516101fe919061236c565b60405180910390f35b610221600480360381019061021c9190612310565b6105a7565b005b61023d60048036038101906102389190612310565b610c0b565b005b610259600480360381019061025491906123e5565b611264565b005b6102636112e7565b60405161027091906126f5565b60405180910390f35b600061028361130b565b3073ffffffffffffffffffffffffffffffffffffffff1663b6d316c884846040518363ffffffff1660e01b81526004016102be9291906129a8565b600060405180830381600087803b1580156102d857600080fd5b505af19250505080156102e9575060015b610385576102f56129df565b806308c379a0036103755750610309612a61565b806103145750610377565b60405160200161032390612b48565b604051602081830303815290604052805190602001208160405160200161034a9190612b8e565b604051602081830303815290604052805190602001201461036f5760009150506103c5565b50610380565b505b600090506103c5565b6103c0565b6040517f08c379a00000000000000000000000000000000000000000000000000000000081526004016103b790612c17565b60405180910390fd5b600190505b92915050565b6103d3611355565b6103db6113d3565b6103e361141c565b565b6103ed611355565b6103f68161147f565b50565b7f000000000000000000000000000000000000000000000000000000000000000081565b6000600260149054906101000a900460ff16905090565b61043c611355565b610446600061147f565b565b610450611355565b61045861130b565b610460611545565b565b6000606080600080600060606104a260007f00000000000000000000000000000000000000000000000000000000000000006115a890919063ffffffff16565b6104d660017f00000000000000000000000000000000000000000000000000000000000000006115a890919063ffffffff16565b46306000801b600067ffffffffffffffff8111156104f7576104f6612a01565b5b6040519080825280602002602001820160405280156105255781602001602082028036833780820191505090505b507f0f00000000000000000000000000000000000000000000000000000000000000959493929190965096509650965096509650965090919293949596565b6000600260009054906101000a900473ffffffffffffffffffffffffffffffffffffffff16905090565b60008061059b8484611658565b90508091505092915050565b6105af61130b565b6105b8336117f4565b6105f7576040517f08c379a00000000000000000000000000000000000000000000000000000000081526004016105ee90612c83565b60405180910390fd5b6106018282611658565b610640576040517f08c379a000000000000000000000000000000000000000000000000000000000815260040161063790612cef565b60405180910390fd5b7f000000000000000000000000000000000000000000000000000000000000000073ffffffffffffffffffffffffffffffffffffffff1663d505accf83600001602081019061068f91906123e5565b30856040013586606001600001358760600160200160000160208101906106b69190612d0f565b886060016020016020013589606001602001604001356040518863ffffffff1660e01b81526004016106ee9796959493929190612d4b565b600060405180830381600087803b15801561070857600080fd5b505af115801561071c573d6000803e3d6000fd5b505050507f000000000000000000000000000000000000000000000000000000000000000073ffffffffffffffffffffffffffffffffffffffff166323b872dd83600001602081019061076f91906123e5565b3085604001356040518463ffffffff1660e01b815260040161079393929190612dba565b6020604051808303816000875af11580156107b2573d6000803e3d6000fd5b505050506040513d601f19601f820116820180604052508101906107d69190612e1d565b507f000000000000000000000000000000000000000000000000000000000000000073ffffffffffffffffffffffffffffffffffffffff1663ba087652836040013530306040518463ffffffff1660e01b815260040161083893929190612e4a565b6020604051808303816000875af1158015610857573d6000803e3d6000fd5b505050506040513d601f19601f8201168201806040525081019061087b9190612e96565b5061088461189e565b60007f000000000000000000000000000000000000000000000000000000000000000073ffffffffffffffffffffffffffffffffffffffff1663ff5bc34b6040518163ffffffff1660e01b8152600401602060405180830381865afa1580156108f1573d6000803e3d6000fd5b505050506040513d601f19601f820116820180604052508101906109159190612ed8565b90507f000000000000000000000000000000000000000000000000000000000000000073ffffffffffffffffffffffffffffffffffffffff16636e553f658273ffffffffffffffffffffffffffffffffffffffff166370a08231306040518263ffffffff1660e01b815260040161098c91906126da565b602060405180830381865afa1580156109a9573d6000803e3d6000fd5b505050506040513d601f19601f820116820180604052508101906109cd9190612e96565b306040518363ffffffff1660e01b81526004016109eb929190612f05565b6020604051808303816000875af1158015610a0a573d6000803e3d6000fd5b505050506040513d601f19601f82011682018060405250810190610a2e9190612e96565b507f000000000000000000000000000000000000000000000000000000000000000073ffffffffffffffffffffffffffffffffffffffff1663a9059cbb846020016020810190610a7e91906123e5565b7f000000000000000000000000000000000000000000000000000000000000000073ffffffffffffffffffffffffffffffffffffffff166370a08231306040518263ffffffff1660e01b8152600401610ad791906126da565b602060405180830381865afa158015610af4573d6000803e3d6000fd5b505050506040513d601f19601f82011682018060405250810190610b189190612e96565b6040518363ffffffff1660e01b8152600401610b35929190612f2e565b6020604051808303816000875af1158015610b54573d6000803e3d6000fd5b505050506040513d601f19601f82011682018060405250810190610b789190612e1d565b50826020016020810190610b8c91906123e5565b73ffffffffffffffffffffffffffffffffffffffff16836000016020810190610bb591906123e5565b73ffffffffffffffffffffffffffffffffffffffff167f8ed7db30df47fbd87811a5e8a95a94838f0c0241263d9a1865d6a2a3e10516e28560400135604051610bfe9190612f57565b60405180910390a3505050565b610c158282611658565b610c54576040517f08c379a0000000000000000000000000000000000000000000000000000000008152600401610c4b90612cef565b60405180910390fd5b7f000000000000000000000000000000000000000000000000000000000000000073ffffffffffffffffffffffffffffffffffffffff1663d505accf836000016020810190610ca391906123e5565b3085604001358660600160000135876060016020016000016020810190610cca9190612d0f565b886060016020016020013589606001602001604001356040518863ffffffff1660e01b8152600401610d029796959493929190612d4b565b600060405180830381600087803b158015610d1c57600080fd5b505af1158015610d30573d6000803e3d6000fd5b505050507f000000000000000000000000000000000000000000000000000000000000000073ffffffffffffffffffffffffffffffffffffffff166323b872dd836000016020810190610d8391906123e5565b3085604001356040518463ffffffff1660e01b8152600401610da793929190612dba565b6020604051808303816000875af1158015610dc6573d6000803e3d6000fd5b505050506040513d601f19601f82011682018060405250810190610dea9190612e1d565b507f000000000000000000000000000000000000000000000000000000000000000073ffffffffffffffffffffffffffffffffffffffff1663ba087652836040013530306040518463ffffffff1660e01b8152600401610e4c93929190612e4a565b6020604051808303816000875af1158015610e6b573d6000803e3d6000fd5b505050506040513d601f19601f82011682018060405250810190610e8f9190612e96565b5060007f000000000000000000000000000000000000000000000000000000000000000073ffffffffffffffffffffffffffffffffffffffff1663ff5bc34b6040518163ffffffff1660e01b8152600401602060405180830381865afa158015610efd573d6000803e3d6000fd5b505050506040513d601f19601f82011682018060405250810190610f219190612ed8565b905060008173ffffffffffffffffffffffffffffffffffffffff166370a08231306040518263ffffffff1660e01b8152600401610f5e91906126da565b602060405180830381865afa158015610f7b573d6000803e3d6000fd5b505050506040513d601f19601f82011682018060405250810190610f9f9190612e96565b90508173ffffffffffffffffffffffffffffffffffffffff1663095ea7b37f0000000000000000000000000000000000000000000000000000000000000000836040518363ffffffff1660e01b8152600401610ffc929190612f2e565b6020604051808303816000875af115801561101b573d6000803e3d6000fd5b505050506040513d601f19601f8201168201806040525081019061103f9190612e1d565b507f000000000000000000000000000000000000000000000000000000000000000073ffffffffffffffffffffffffffffffffffffffff16636e553f6582306040518363ffffffff1660e01b815260040161109b929190612f05565b6020604051808303816000875af11580156110ba573d6000803e3d6000fd5b505050506040513d601f19601f820116820180604052508101906110de9190612e96565b507f000000000000000000000000000000000000000000000000000000000000000073ffffffffffffffffffffffffffffffffffffffff1663a9059cbb85602001602081019061112e91906123e5565b7f000000000000000000000000000000000000000000000000000000000000000073ffffffffffffffffffffffffffffffffffffffff166370a08231306040518263ffffffff1660e01b815260040161118791906126da565b602060405180830381865afa1580156111a4573d6000803e3d6000fd5b505050506040513d601f19601f820116820180604052508101906111c89190612e96565b6040518363ffffffff1660e01b81526004016111e5929190612f2e565b6020604051808303816000875af1158015611204573d6000803e3d6000fd5b505050506040513d601f19601f820116820180604052508101906112289190612e1d565b506040517f08c379a000000000000000000000000000000000000000000000000000000000815260040161125b90612f95565b60405180910390fd5b61126c611355565b600073ffffffffffffffffffffffffffffffffffffffff168173ffffffffffffffffffffffffffffffffffffffff16036112db576040517f08c379a00000000000000000000000000000000000000000000000000000000081526004016112d290613027565b60405180910390fd5b6112e48161147f565b50565b7f667a8c7f09938d651a2ceb2108bc4cb5496e13b27b76c54d6ef988cede5ae59581565b61131361041d565b15611353576040517f08c379a000000000000000000000000000000000000000000000000000000000815260040161134a90613093565b60405180910390fd5b565b61135d6118e0565b73ffffffffffffffffffffffffffffffffffffffff1661137b610564565b73ffffffffffffffffffffffffffffffffffffffff16146113d1576040517f08c379a00000000000000000000000000000000000000000000000000000000081526004016113c8906130ff565b60405180910390fd5b565b6113db61041d565b61141a576040517f08c379a00000000000000000000000000000000000000000000000000000000081526004016114119061316b565b60405180910390fd5b565b6114246113d3565b6000600260146101000a81548160ff0219169083151502179055507f5db9ee0a495bf2e6ff9c91a7834c1ba4fdd244a5e8aa4e537bd38aeae4b073aa6114686118e0565b60405161147591906126da565b60405180910390a1565b6000600260009054906101000a900473ffffffffffffffffffffffffffffffffffffffff16905081600260006101000a81548173ffffffffffffffffffffffffffffffffffffffff021916908373ffffffffffffffffffffffffffffffffffffffff1602179055508173ffffffffffffffffffffffffffffffffffffffff168173ffffffffffffffffffffffffffffffffffffffff167f8be0079c531659141344cd1fd0a4f28419497f9722a3daafe3b4186f6b6457e060405160405180910390a35050565b61154d61130b565b6001600260146101000a81548160ff0219169083151502179055507f62e78cea01bee320cd4e420270b5ea74000d11b0c9f74754ebdbfc544b05a2586115916118e0565b60405161159e91906126da565b60405180910390a1565b606060ff60001b83146115c5576115be836118e8565b9050611652565b8180546115d1906131ba565b80601f01602080910402602001604051908101604052809291908181526020018280546115fd906131ba565b801561164a5780601f1061161f5761010080835404028352916020019161164a565b820191906000526020600020905b81548152906001019060200180831161162d57829003601f168201915b505050505090505b92915050565b6000807f000000000000000000000000000000000000000000000000000000000000000073ffffffffffffffffffffffffffffffffffffffff16637ecebe008560000160208101906116aa91906123e5565b6040518263ffffffff1660e01b81526004016116c691906126da565b602060405180830381865afa1580156116e3573d6000803e3d6000fd5b505050506040513d601f19601f820116820180604052508101906117079190612e96565b905060007f667a8c7f09938d651a2ceb2108bc4cb5496e13b27b76c54d6ef988cede5ae59585602001602081019061173f91906123e5565b83604051602001611752939291906131eb565b60405160208183030381529060405280519060200120905060006117758261195c565b9050600061179f828760000160208101906117909190612d0f565b88602001358960400135611976565b905060008760000160208101906117b691906123e5565b73ffffffffffffffffffffffffffffffffffffffff168273ffffffffffffffffffffffffffffffffffffffff16149050809550505050505092915050565b6000610144461480611807575061011846145b6118535773abcc9b596420a9e9172fd5938620e265a0f9df9273ffffffffffffffffffffffffffffffffffffffff168273ffffffffffffffffffffffffffffffffffffffff1614611897565b73b16a1dbe755f992636705fdbb3a8678a657eb3ea73ffffffffffffffffffffffffffffffffffffffff168273ffffffffffffffffffffffffffffffffffffffff16145b9050919050565b6118de6118a96119a1565b6118b16119b0565b6118b96119bf565b73ffffffffffffffffffffffffffffffffffffffff166119ce9092919063ffffffff16565b565b600033905090565b606060006118f583611a5f565b90506000602067ffffffffffffffff81111561191457611913612a01565b5b6040519080825280601f01601f1916602001820160405280156119465781602001600182028036833780820191505090505b5090508181528360208201528092505050919050565b600061196f611969611aaf565b83611b66565b9050919050565b600080600061198787878787611ba7565b9150915061199481611c89565b8192505050949350505050565b60006119ab611def565b905090565b60006119ba611dfe565b905090565b60006119c9611e0a565b905090565b6000810315611a5a5773eeeeeeeeeeeeeeeeeeeeeeeeeeeeeeeeeeeeeeee73ffffffffffffffffffffffffffffffffffffffff168373ffffffffffffffffffffffffffffffffffffffff1614611a4e57611a4982828573ffffffffffffffffffffffffffffffffffffffff16611e199092919063ffffffff16565b611a59565b611a588282611e9f565b5b5b505050565b60008060ff8360001c169050601f811115611aa6576040517fb3512b0c00000000000000000000000000000000000000000000000000000000815260040160405180910390fd5b80915050919050565b60007f000000000000000000000000000000000000000000000000000000000000000073ffffffffffffffffffffffffffffffffffffffff163073ffffffffffffffffffffffffffffffffffffffff16148015611b2b57507f000000000000000000000000000000000000000000000000000000000000000046145b15611b58577f00000000000000000000000000000000000000000000000000000000000000009050611b63565b611b60611f93565b90505b90565b60006040517f190100000000000000000000000000000000000000000000000000000000000081528360028201528260228201526042812091505092915050565b6000807f7fffffffffffffffffffffffffffffff5d576e7357a4501ddfe92f46681b20a08360001c1115611be2576000600391509150611c80565b600060018787878760405160008152602001604052604051611c079493929190613222565b6020604051602081039080840390855afa158015611c29573d6000803e3d6000fd5b505050602060405103519050600073ffffffffffffffffffffffffffffffffffffffff168173ffffffffffffffffffffffffffffffffffffffff1603611c7757600060019250925050611c80565b80600092509250505b94509492505050565b60006004811115611c9d57611c9c613267565b5b816004811115611cb057611caf613267565b5b0315611dec5760016004811115611cca57611cc9613267565b5b816004811115611cdd57611cdc613267565b5b03611d1d576040517f08c379a0000000000000000000000000000000000000000000000000000000008152600401611d14906132e2565b60405180910390fd5b60026004811115611d3157611d30613267565b5b816004811115611d4457611d43613267565b5b03611d84576040517f08c379a0000000000000000000000000000000000000000000000000000000008152600401611d7b9061334e565b60405180910390fd5b60036004811115611d9857611d97613267565b5b816004811115611dab57611daa613267565b5b03611deb576040517f08c379a0000000000000000000000000000000000000000000000000000000008152600401611de2906133e0565b60405180910390fd5b5b50565b6000604836033560601c905090565b60006020360335905090565b6000603436033560601c905090565b611e9a8363a9059cbb60e01b8484604051602401611e38929190612f2e565b604051602081830303815290604052907bffffffffffffffffffffffffffffffffffffffffffffffffffffffff19166020820180517bffffffffffffffffffffffffffffffffffffffffffffffffffffffff8381831617835250505050612029565b505050565b80471015611ee2576040517f08c379a0000000000000000000000000000000000000000000000000000000008152600401611ed99061344c565b60405180910390fd5b60008273ffffffffffffffffffffffffffffffffffffffff1682604051611f089061349d565b60006040518083038185875af1925050503d8060008114611f45576040519150601f19603f3d011682016040523d82523d6000602084013e611f4a565b606091505b5050905080611f8e576040517f08c379a0000000000000000000000000000000000000000000000000000000008152600401611f8590613524565b60405180910390fd5b505050565b60007f8b73c3c69bb8fe3d512ecc4cf759cc79239f7b179b0ffacaa9a75d522b39400f7f00000000000000000000000000000000000000000000000000000000000000007f0000000000000000000000000000000000000000000000000000000000000000463060405160200161200e959493929190613544565b60405160208183030381529060405280519060200120905090565b600061208b826040518060400160405280602081526020017f5361666545524332303a206c6f772d6c6576656c2063616c6c206661696c65648152508573ffffffffffffffffffffffffffffffffffffffff166120f19092919063ffffffff16565b90506000815114806120ad5750808060200190518101906120ac9190612e1d565b5b6120ec576040517f08c379a00000000000000000000000000000000000000000000000000000000081526004016120e390613609565b60405180910390fd5b505050565b60606121008484600085612109565b90509392505050565b60608247101561214e576040517f08c379a00000000000000000000000000000000000000000000000000000000081526004016121459061369b565b60405180910390fd5b6000808673ffffffffffffffffffffffffffffffffffffffff16858760405161217791906136f7565b60006040518083038185875af1925050503d80600081146121b4576040519150601f19603f3d011682016040523d82523d6000602084013e6121b9565b606091505b50915091506121ca878383876121d6565b92505050949350505050565b60608315612238576000835103612230576121f08561224b565b61222f576040517f08c379a00000000000000000000000000000000000000000000000000000000081526004016122269061375a565b60405180910390fd5b5b829050612243565b612242838361226e565b5b949350505050565b6000808273ffffffffffffffffffffffffffffffffffffffff163b119050919050565b6000825111156122815781518083602001fd5b806040517f08c379a00000000000000000000000000000000000000000000000000000000081526004016122b5919061377a565b60405180910390fd5b6000604051905090565b600080fd5b600080fd5b600060e082840312156122e8576122e76122cd565b5b81905092915050565b600060608284031215612307576123066122cd565b5b81905092915050565b6000806101408385031215612328576123276122c8565b5b6000612336858286016122d2565b92505060e0612347858286016122f1565b9150509250929050565b60008115159050919050565b61236681612351565b82525050565b6000602082019050612381600083018461235d565b92915050565b600073ffffffffffffffffffffffffffffffffffffffff82169050919050565b60006123b282612387565b9050919050565b6123c2816123a7565b81146123cd57600080fd5b50565b6000813590506123df816123b9565b92915050565b6000602082840312156123fb576123fa6122c8565b5b6000612409848285016123d0565b91505092915050565b6000819050919050565b600061243761243261242d84612387565b612412565b612387565b9050919050565b60006124498261241c565b9050919050565b600061245b8261243e565b9050919050565b61246b81612450565b82525050565b60006020820190506124866000830184612462565b92915050565b60007fff0000000000000000000000000000000000000000000000000000000000000082169050919050565b6124c18161248c565b82525050565b600081519050919050565b600082825260208201905092915050565b60005b838110156125015780820151818401526020810190506124e6565b60008484015250505050565b6000601f19601f8301169050919050565b6000612529826124c7565b61253381856124d2565b93506125438185602086016124e3565b61254c8161250d565b840191505092915050565b6000819050919050565b61256a81612557565b82525050565b612579816123a7565b82525050565b6000819050919050565b6125928161257f565b82525050565b600081519050919050565b600082825260208201905092915050565b6000819050602082019050919050565b6125cd81612557565b82525050565b60006125df83836125c4565b60208301905092915050565b6000602082019050919050565b600061260382612598565b61260d81856125a3565b9350612618836125b4565b8060005b8381101561264957815161263088826125d3565b975061263b836125eb565b92505060018101905061261c565b5085935050505092915050565b600060e08201905061266b600083018a6124b8565b818103602083015261267d818961251e565b90508181036040830152612691818861251e565b90506126a06060830187612561565b6126ad6080830186612570565b6126ba60a0830185612589565b81810360c08301526126cc81846125f8565b905098975050505050505050565b60006020820190506126ef6000830184612570565b92915050565b600060208201905061270a6000830184612589565b92915050565b600061271f60208401846123d0565b905092915050565b612730816123a7565b82525050565b61273f81612557565b811461274a57600080fd5b50565b60008135905061275c81612736565b92915050565b6000612771602084018461274d565b905092915050565b600082905092915050565b600082905092915050565b600060ff82169050919050565b6127a58161278f565b81146127b057600080fd5b50565b6000813590506127c28161279c565b92915050565b60006127d760208401846127b3565b905092915050565b6127e88161278f565b82525050565b6127f78161257f565b811461280257600080fd5b50565b600081359050612814816127ee565b92915050565b60006128296020840184612805565b905092915050565b61283a8161257f565b82525050565b6060820161285160008301836127c8565b61285e60008501826127df565b5061286c602083018361281a565b6128796020850182612831565b50612887604083018361281a565b6128946040850182612831565b50505050565b608082016128ab6000830183612762565b6128b860008501826125c4565b506128c66020830183612784565b6128d36020850182612840565b50505050565b60e082016128ea6000830183612710565b6128f76000850182612727565b506129056020830183612710565b6129126020850182612727565b506129206040830183612762565b61292d60408501826125c4565b5061293b6060830183612779565b612948606085018261289a565b50505050565b6060820161295f60008301836127c8565b61296c60008501826127df565b5061297a602083018361281a565b6129876020850182612831565b50612995604083018361281a565b6129a26040850182612831565b50505050565b6000610140820190506129be60008301856128d9565b6129cb60e083018461294e565b9392505050565b60008160e01c9050919050565b600060033d11156129fe5760046000803e6129fb6000516129d2565b90505b90565b7f4e487b7100000000000000000000000000000000000000000000000000000000600052604160045260246000fd5b612a398261250d565b810181811067ffffffffffffffff82111715612a5857612a57612a01565b5b80604052505050565b600060443d10612aee57612a736122be565b60043d036004823e80513d602482011167ffffffffffffffff82111715612a9b575050612aee565b808201805167ffffffffffffffff811115612ab95750505050612aee565b80602083010160043d038501811115612ad6575050505050612aee565b612ae582602001850186612a30565b82955050505050505b90565b600081905092915050565b7f466c6173683a20766572696669636174696f6e20636f6d706c65746500000000600082015250565b6000612b32601c83612af1565b9150612b3d82612afc565b601c82019050919050565b6000612b5382612b25565b9150819050919050565b6000612b68826124c7565b612b728185612af1565b9350612b828185602086016124e3565b80840191505092915050565b6000612b9a8284612b5d565b915081905092915050565b7f466c6173683a2076657269667944617461526576657274696e6720646964206e60008201527f6f74207265766572740000000000000000000000000000000000000000000000602082015250565b6000612c016029836124d2565b9150612c0c82612ba5565b604082019050919050565b60006020820190508181036000830152612c3081612bf4565b9050919050565b7f6f6e6c7947656c61746f52656c61790000000000000000000000000000000000600082015250565b6000612c6d600f836124d2565b9150612c7882612c37565b602082019050919050565b60006020820190508181036000830152612c9c81612c60565b9050919050565b7f466c6173683a20696e76616c6964207369676e61747572650000000000000000600082015250565b6000612cd96018836124d2565b9150612ce482612ca3565b602082019050919050565b60006020820190508181036000830152612d0881612ccc565b9050919050565b600060208284031215612d2557612d246122c8565b5b6000612d33848285016127b3565b91505092915050565b612d458161278f565b82525050565b600060e082019050612d60600083018a612570565b612d6d6020830189612570565b612d7a6040830188612561565b612d876060830187612561565b612d946080830186612d3c565b612da160a0830185612589565b612dae60c0830184612589565b98975050505050505050565b6000606082019050612dcf6000830186612570565b612ddc6020830185612570565b612de96040830184612561565b949350505050565b612dfa81612351565b8114612e0557600080fd5b50565b600081519050612e1781612df1565b92915050565b600060208284031215612e3357612e326122c8565b5b6000612e4184828501612e08565b91505092915050565b6000606082019050612e5f6000830186612561565b612e6c6020830185612570565b612e796040830184612570565b949350505050565b600081519050612e9081612736565b92915050565b600060208284031215612eac57612eab6122c8565b5b6000612eba84828501612e81565b91505092915050565b600081519050612ed2816123b9565b92915050565b600060208284031215612eee57612eed6122c8565b5b6000612efc84828501612ec3565b91505092915050565b6000604082019050612f1a6000830185612561565b612f276020830184612570565b9392505050565b6000604082019050612f436000830185612570565b612f506020830184612561565b9392505050565b6000602082019050612f6c6000830184612561565b92915050565b6000612f7f601c836124d2565b9150612f8a82612afc565b602082019050919050565b60006020820190508181036000830152612fae81612f72565b9050919050565b7f4f776e61626c653a206e6577206f776e657220697320746865207a65726f206160008201527f6464726573730000000000000000000000000000000000000000000000000000602082015250565b60006130116026836124d2565b915061301c82612fb5565b604082019050919050565b6000602082019050818103600083015261304081613004565b9050919050565b7f5061757361626c653a2070617573656400000000000000000000000000000000600082015250565b600061307d6010836124d2565b915061308882613047565b602082019050919050565b600060208201905081810360008301526130ac81613070565b9050919050565b7f4f776e61626c653a2063616c6c6572206973206e6f7420746865206f776e6572600082015250565b60006130e96020836124d2565b91506130f4826130b3565b602082019050919050565b60006020820190508181036000830152613118816130dc565b9050919050565b7f5061757361626c653a206e6f7420706175736564000000000000000000000000600082015250565b60006131556014836124d2565b91506131608261311f565b602082019050919050565b6000602082019050818103600083015261318481613148565b9050919050565b7f4e487b7100000000000000000000000000000000000000000000000000000000600052602260045260246000fd5b600060028204905060018216806131d257607f821691505b6020821081036131e5576131e461318b565b5b50919050565b60006060820190506132006000830186612589565b61320d6020830185612570565b61321a6040830184612561565b949350505050565b60006080820190506132376000830187612589565b6132446020830186612d3c565b6132516040830185612589565b61325e6060830184612589565b95945050505050565b7f4e487b7100000000000000000000000000000000000000000000000000000000600052602160045260246000fd5b7f45434453413a20696e76616c6964207369676e61747572650000000000000000600082015250565b60006132cc6018836124d2565b91506132d782613296565b602082019050919050565b600060208201905081810360008301526132fb816132bf565b9050919050565b7f45434453413a20696e76616c6964207369676e6174757265206c656e67746800600082015250565b6000613338601f836124d2565b915061334382613302565b602082019050919050565b600060208201905081810360008301526133678161332b565b9050919050565b7f45434453413a20696e76616c6964207369676e6174757265202773272076616c60008201527f7565000000000000000000000000000000000000000000000000000000000000602082015250565b60006133ca6022836124d2565b91506133d58261336e565b604082019050919050565b600060208201905081810360008301526133f9816133bd565b9050919050565b7f416464726573733a20696e73756666696369656e742062616c616e6365000000600082015250565b6000613436601d836124d2565b915061344182613400565b602082019050919050565b6000602082019050818103600083015261346581613429565b9050919050565b600081905092915050565b50565b600061348760008361346c565b915061349282613477565b600082019050919050565b60006134a88261347a565b9150819050919050565b7f416464726573733a20756e61626c6520746f2073656e642076616c75652c207260008201527f6563697069656e74206d61792068617665207265766572746564000000000000602082015250565b600061350e603a836124d2565b9150613519826134b2565b604082019050919050565b6000602082019050818103600083015261353d81613501565b9050919050565b600060a0820190506135596000830188612589565b6135666020830187612589565b6135736040830186612589565b6135806060830185612561565b61358d6080830184612570565b9695505050505050565b7f5361666545524332303a204552433230206f7065726174696f6e20646964206e60008201527f6f74207375636365656400000000000000000000000000000000000000000000602082015250565b60006135f3602a836124d2565b91506135fe82613597565b604082019050919050565b60006020820190508181036000830152613622816135e6565b9050919050565b7f416464726573733a20696e73756666696369656e742062616c616e636520666f60008201527f722063616c6c0000000000000000000000000000000000000000000000000000602082015250565b60006136856026836124d2565b915061369082613629565b604082019050919050565b600060208201905081810360008301526136b481613678565b9050919050565b600081519050919050565b60006136d1826136bb565b6136db818561346c565b93506136eb8185602086016124e3565b80840191505092915050565b600061370382846136c6565b915081905092915050565b7f416464726573733a2063616c6c20746f206e6f6e2d636f6e7472616374000000600082015250565b6000613744601d836124d2565b915061374f8261370e565b602082019050919050565b6000602082019050818103600083015261377381613737565b9050919050565b60006020820190508181036000830152613794818461251e565b90509291505056fea2646970667358221220cacbe5e417570b64ceb1589746fdd39604931655b5959457c537b75cf4265d2d64736f6c63430008140033",
  "devdoc": {
    "events": {
      "EIP712DomainChanged()": {
        "details": "MAY be emitted to signal that the domain could have changed."
      },
      "Paused(address)": {
        "details": "Emitted when the pause is triggered by `account`."
      },
      "Unpaused(address)": {
        "details": "Emitted when the pause is lifted by `account`."
      }
    },
    "kind": "dev",
    "methods": {
      "eip712Domain()": {
        "details": "See {EIP-5267}. _Available since v4.9._"
      },
      "owner()": {
        "details": "Returns the address of the current owner."
      },
      "paused()": {
        "details": "Returns true if the contract is paused, and false otherwise."
      },
      "renounceOwnership()": {
        "details": "Leaves the contract without owner. It will not be possible to call `onlyOwner` functions. Can only be called by the current owner. NOTE: Renouncing ownership will leave the contract without an owner, thereby disabling any functionality that is only available to the owner."
      },
      "transferOwnership(address)": {
        "details": "Transfers ownership of the contract to a new account (`newOwner`). Can only be called by the current owner."
      }
    },
    "version": 1
  },
  "userdoc": {
    "kind": "user",
    "methods": {},
    "version": 1
  },
  "storageLayout": {
    "storage": [
      {
        "astId": 2397,
        "contract": "contracts/Flash.sol:Flash",
        "label": "_nameFallback",
        "offset": 0,
        "slot": "0",
        "type": "t_string_storage"
      },
      {
        "astId": 2399,
        "contract": "contracts/Flash.sol:Flash",
        "label": "_versionFallback",
        "offset": 0,
        "slot": "1",
        "type": "t_string_storage"
      },
      {
        "astId": 363,
        "contract": "contracts/Flash.sol:Flash",
        "label": "_owner",
        "offset": 0,
        "slot": "2",
        "type": "t_address"
      },
      {
        "astId": 511,
        "contract": "contracts/Flash.sol:Flash",
        "label": "_paused",
        "offset": 20,
        "slot": "2",
        "type": "t_bool"
      }
    ],
    "types": {
      "t_address": {
        "encoding": "inplace",
        "label": "address",
        "numberOfBytes": "20"
      },
      "t_bool": {
        "encoding": "inplace",
        "label": "bool",
        "numberOfBytes": "1"
      },
      "t_string_storage": {
        "encoding": "bytes",
        "label": "string",
        "numberOfBytes": "32"
      }
    }
  }
}