{
  "address": "0xF7ad28A6bbdef892712a470DbCAAeEd89f81d46D",
  "abi": [
    {
      "inputs": [],
      "stateMutability": "nonpayable",
      "type": "constructor"
    },
    {
      "inputs": [],
      "name": "InvalidShortString",
      "type": "error"
    },
    {
      "inputs": [
        {
          "internalType": "string",
          "name": "str",
          "type": "string"
        }
      ],
      "name": "StringTooLong",
      "type": "error"
    },
    {
      "anonymous": false,
      "inputs": [],
      "name": "EIP712DomainChanged",
      "type": "event"
    },
    {
      "anonymous": false,
      "inputs": [
        {
          "indexed": true,
          "internalType": "address",
          "name": "previousOwner",
          "type": "address"
        },
        {
          "indexed": true,
          "internalType": "address",
          "name": "newOwner",
          "type": "address"
        }
      ],
      "name": "OwnershipTransferred",
      "type": "event"
    },
    {
      "anonymous": false,
      "inputs": [
        {
          "indexed": false,
          "internalType": "address",
          "name": "account",
          "type": "address"
        }
      ],
      "name": "Paused",
      "type": "event"
    },
    {
      "anonymous": false,
      "inputs": [
        {
          "indexed": false,
          "internalType": "address",
          "name": "account",
          "type": "address"
        }
      ],
      "name": "Unpaused",
      "type": "event"
    },
    {
      "inputs": [],
      "name": "PAY_TYPEHASH",
      "outputs": [
        {
          "internalType": "bytes32",
          "name": "",
          "type": "bytes32"
        }
      ],
      "stateMutability": "view",
      "type": "function"
    },
    {
      "inputs": [],
      "name": "eip712Domain",
      "outputs": [
        {
          "internalType": "bytes1",
          "name": "fields",
          "type": "bytes1"
        },
        {
          "internalType": "string",
          "name": "name",
          "type": "string"
        },
        {
          "internalType": "string",
          "name": "version",
          "type": "string"
        },
        {
          "internalType": "uint256",
          "name": "chainId",
          "type": "uint256"
        },
        {
          "internalType": "address",
          "name": "verifyingContract",
          "type": "address"
        },
        {
          "internalType": "bytes32",
          "name": "salt",
          "type": "bytes32"
        },
        {
          "internalType": "uint256[]",
          "name": "extensions",
          "type": "uint256[]"
        }
      ],
      "stateMutability": "view",
      "type": "function"
    },
    {
      "inputs": [],
      "name": "owner",
      "outputs": [
        {
          "internalType": "address",
          "name": "",
          "type": "address"
        }
      ],
      "stateMutability": "view",
      "type": "function"
    },
    {
      "inputs": [],
      "name": "pause",
      "outputs": [],
      "stateMutability": "nonpayable",
      "type": "function"
    },
    {
      "inputs": [],
      "name": "paused",
      "outputs": [
        {
          "internalType": "bool",
          "name": "",
          "type": "bool"
        }
      ],
      "stateMutability": "view",
      "type": "function"
    },
    {
      "inputs": [
        {
          "components": [
            {
              "internalType": "address",
              "name": "token",
              "type": "address"
            },
            {
              "internalType": "address",
              "name": "from",
              "type": "address"
            },
            {
              "internalType": "address",
              "name": "to",
              "type": "address"
            },
            {
              "internalType": "uint256",
              "name": "amount",
              "type": "uint256"
            },
            {
              "components": [
                {
                  "internalType": "uint256",
                  "name": "deadline",
                  "type": "uint256"
                },
                {
                  "components": [
                    {
                      "internalType": "uint8",
                      "name": "v",
                      "type": "uint8"
                    },
                    {
                      "internalType": "bytes32",
                      "name": "r",
                      "type": "bytes32"
                    },
                    {
                      "internalType": "bytes32",
                      "name": "s",
                      "type": "bytes32"
                    }
                  ],
                  "internalType": "struct Flash.Signature",
                  "name": "signature",
                  "type": "tuple"
                }
              ],
              "internalType": "struct Flash.PermitData",
              "name": "permitData",
              "type": "tuple"
            }
          ],
          "internalType": "struct Flash.PaymentData",
          "name": "_paymentData",
          "type": "tuple"
        },
        {
          "components": [
            {
              "internalType": "uint8",
              "name": "v",
              "type": "uint8"
            },
            {
              "internalType": "bytes32",
              "name": "r",
              "type": "bytes32"
            },
            {
              "internalType": "bytes32",
              "name": "s",
              "type": "bytes32"
            }
          ],
          "internalType": "struct Flash.Signature",
          "name": "_signature",
          "type": "tuple"
        }
      ],
      "name": "pay",
      "outputs": [],
      "stateMutability": "nonpayable",
      "type": "function"
    },
    {
      "inputs": [],
      "name": "renounceOwnership",
      "outputs": [],
      "stateMutability": "nonpayable",
      "type": "function"
    },
    {
      "inputs": [
        {
          "internalType": "address",
          "name": "_newOwner",
          "type": "address"
        }
      ],
      "name": "transferOwner",
      "outputs": [],
      "stateMutability": "nonpayable",
      "type": "function"
    },
    {
      "inputs": [
        {
          "internalType": "address",
          "name": "newOwner",
          "type": "address"
        }
      ],
      "name": "transferOwnership",
      "outputs": [],
      "stateMutability": "nonpayable",
      "type": "function"
    },
    {
      "inputs": [],
      "name": "unpause",
      "outputs": [],
      "stateMutability": "nonpayable",
      "type": "function"
    },
    {
      "inputs": [
        {
          "components": [
            {
              "internalType": "address",
              "name": "token",
              "type": "address"
            },
            {
              "internalType": "address",
              "name": "from",
              "type": "address"
            },
            {
              "internalType": "address",
              "name": "to",
              "type": "address"
            },
            {
              "internalType": "uint256",
              "name": "amount",
              "type": "uint256"
            },
            {
              "components": [
                {
                  "internalType": "uint256",
                  "name": "deadline",
                  "type": "uint256"
                },
                {
                  "components": [
                    {
                      "internalType": "uint8",
                      "name": "v",
                      "type": "uint8"
                    },
                    {
                      "internalType": "bytes32",
                      "name": "r",
                      "type": "bytes32"
                    },
                    {
                      "internalType": "bytes32",
                      "name": "s",
                      "type": "bytes32"
                    }
                  ],
                  "internalType": "struct Flash.Signature",
                  "name": "signature",
                  "type": "tuple"
                }
              ],
              "internalType": "struct Flash.PermitData",
              "name": "permitData",
              "type": "tuple"
            }
          ],
          "internalType": "struct Flash.PaymentData",
          "name": "_paymentData",
          "type": "tuple"
        },
        {
          "components": [
            {
              "internalType": "uint8",
              "name": "v",
              "type": "uint8"
            },
            {
              "internalType": "bytes32",
              "name": "r",
              "type": "bytes32"
            },
            {
              "internalType": "bytes32",
              "name": "s",
              "type": "bytes32"
            }
          ],
          "internalType": "struct Flash.Signature",
          "name": "_signature",
          "type": "tuple"
        }
      ],
      "name": "verifyData",
      "outputs": [
        {
          "internalType": "bool",
          "name": "",
          "type": "bool"
        }
      ],
      "stateMutability": "nonpayable",
      "type": "function"
    },
    {
      "inputs": [
        {
          "components": [
            {
              "internalType": "address",
              "name": "token",
              "type": "address"
            },
            {
              "internalType": "address",
              "name": "from",
              "type": "address"
            },
            {
              "internalType": "address",
              "name": "to",
              "type": "address"
            },
            {
              "internalType": "uint256",
              "name": "amount",
              "type": "uint256"
            },
            {
              "components": [
                {
                  "internalType": "uint256",
                  "name": "deadline",
                  "type": "uint256"
                },
                {
                  "components": [
                    {
                      "internalType": "uint8",
                      "name": "v",
                      "type": "uint8"
                    },
                    {
                      "internalType": "bytes32",
                      "name": "r",
                      "type": "bytes32"
                    },
                    {
                      "internalType": "bytes32",
                      "name": "s",
                      "type": "bytes32"
                    }
                  ],
                  "internalType": "struct Flash.Signature",
                  "name": "signature",
                  "type": "tuple"
                }
              ],
              "internalType": "struct Flash.PermitData",
              "name": "permitData",
              "type": "tuple"
            }
          ],
          "internalType": "struct Flash.PaymentData",
          "name": "_paymentData",
          "type": "tuple"
        },
        {
          "components": [
            {
              "internalType": "uint8",
              "name": "v",
              "type": "uint8"
            },
            {
              "internalType": "bytes32",
              "name": "r",
              "type": "bytes32"
            },
            {
              "internalType": "bytes32",
              "name": "s",
              "type": "bytes32"
            }
          ],
          "internalType": "struct Flash.Signature",
          "name": "_signature",
          "type": "tuple"
        }
      ],
      "name": "verifyDataReverting",
      "outputs": [],
      "stateMutability": "nonpayable",
      "type": "function"
    },
    {
      "inputs": [
        {
          "components": [
            {
              "internalType": "address",
              "name": "token",
              "type": "address"
            },
            {
              "internalType": "address",
              "name": "from",
              "type": "address"
            },
            {
              "internalType": "address",
              "name": "to",
              "type": "address"
            },
            {
              "internalType": "uint256",
              "name": "amount",
              "type": "uint256"
            },
            {
              "components": [
                {
                  "internalType": "uint256",
                  "name": "deadline",
                  "type": "uint256"
                },
                {
                  "components": [
                    {
                      "internalType": "uint8",
                      "name": "v",
                      "type": "uint8"
                    },
                    {
                      "internalType": "bytes32",
                      "name": "r",
                      "type": "bytes32"
                    },
                    {
                      "internalType": "bytes32",
                      "name": "s",
                      "type": "bytes32"
                    }
                  ],
                  "internalType": "struct Flash.Signature",
                  "name": "signature",
                  "type": "tuple"
                }
              ],
              "internalType": "struct Flash.PermitData",
              "name": "permitData",
              "type": "tuple"
            }
          ],
          "internalType": "struct Flash.PaymentData",
          "name": "_paymentData",
          "type": "tuple"
        },
        {
          "components": [
            {
              "internalType": "uint8",
              "name": "v",
              "type": "uint8"
            },
            {
              "internalType": "bytes32",
              "name": "r",
              "type": "bytes32"
            },
            {
              "internalType": "bytes32",
              "name": "s",
              "type": "bytes32"
            }
          ],
          "internalType": "struct Flash.Signature",
          "name": "_signature",
          "type": "tuple"
        }
      ],
      "name": "verifySignature",
      "outputs": [
        {
          "internalType": "bool",
          "name": "",
          "type": "bool"
        }
      ],
      "stateMutability": "view",
      "type": "function"
    }
  ],
  "transactionHash": "0xee80d1eb7511e3f45fe673ce0df1e10d51aa6242c5efc1a26ee1002c26aec749",
  "args": [],
  "numDeployments": 1,
  "solcInputHash": "836e6fe1a98ea5ea702877bbfe227fa6",
  "bytecode": "0x6101606040523480156200001257600080fd5b506040518060400160405280600581526020017f466c6173680000000000000000000000000000000000000000000000000000008152506040518060400160405280600181526020017f3100000000000000000000000000000000000000000000000000000000000000815250620000956000836200017060201b90919060201c565b6101208181525050620000b36001826200017060201b90919060201c565b6101408181525050818051906020012060e08181525050808051906020012061010081815250504660a08181525050620000f2620001c860201b60201c565b608081815250503073ffffffffffffffffffffffffffffffffffffffff1660c08173ffffffffffffffffffffffffffffffffffffffff168152505050506200014f620001436200022560201b60201c565b6200022d60201b60201c565b6000600260146101000a81548160ff021916908315150217905550620008ee565b600060208351101562000196576200018e83620002f360201b60201c565b9050620001c2565b82620001a8836200036060201b60201c565b6000019081620001b99190620005e4565b5060ff60001b90505b92915050565b60007f8b73c3c69bb8fe3d512ecc4cf759cc79239f7b179b0ffacaa9a75d522b39400f60e0516101005146306040516020016200020a9594939291906200073c565b60405160208183030381529060405280519060200120905090565b600033905090565b6000600260009054906101000a900473ffffffffffffffffffffffffffffffffffffffff16905081600260006101000a81548173ffffffffffffffffffffffffffffffffffffffff021916908373ffffffffffffffffffffffffffffffffffffffff1602179055508173ffffffffffffffffffffffffffffffffffffffff168173ffffffffffffffffffffffffffffffffffffffff167f8be0079c531659141344cd1fd0a4f28419497f9722a3daafe3b4186f6b6457e060405160405180910390a35050565b600080829050601f815111156200034357826040517f305a27a90000000000000000000000000000000000000000000000000000000081526004016200033a919062000828565b60405180910390fd5b80518162000351906200087e565b60001c1760001b915050919050565b6000819050919050565b600081519050919050565b7f4e487b7100000000000000000000000000000000000000000000000000000000600052604160045260246000fd5b7f4e487b7100000000000000000000000000000000000000000000000000000000600052602260045260246000fd5b60006002820490506001821680620003ec57607f821691505b602082108103620004025762000401620003a4565b5b50919050565b60008190508160005260206000209050919050565b60006020601f8301049050919050565b600082821b905092915050565b6000600883026200046c7fffffffffffffffffffffffffffffffffffffffffffffffffffffffffffffffff826200042d565b6200047886836200042d565b95508019841693508086168417925050509392505050565b6000819050919050565b6000819050919050565b6000620004c5620004bf620004b98462000490565b6200049a565b62000490565b9050919050565b6000819050919050565b620004e183620004a4565b620004f9620004f082620004cc565b8484546200043a565b825550505050565b600090565b6200051062000501565b6200051d818484620004d6565b505050565b5b8181101562000545576200053960008262000506565b60018101905062000523565b5050565b601f82111562000594576200055e8162000408565b62000569846200041d565b8101602085101562000579578190505b6200059162000588856200041d565b83018262000522565b50505b505050565b600082821c905092915050565b6000620005b96000198460080262000599565b1980831691505092915050565b6000620005d48383620005a6565b9150826002028217905092915050565b620005ef826200036a565b67ffffffffffffffff8111156200060b576200060a62000375565b5b620006178254620003d3565b6200062482828562000549565b600060209050601f8311600181146200065c576000841562000647578287015190505b620006538582620005c6565b865550620006c3565b601f1984166200066c8662000408565b60005b8281101562000696578489015182556001820191506020850194506020810190506200066f565b86831015620006b65784890151620006b2601f891682620005a6565b8355505b6001600288020188555050505b505050505050565b6000819050919050565b620006e081620006cb565b82525050565b620006f18162000490565b82525050565b600073ffffffffffffffffffffffffffffffffffffffff82169050919050565b60006200072482620006f7565b9050919050565b620007368162000717565b82525050565b600060a082019050620007536000830188620006d5565b620007626020830187620006d5565b620007716040830186620006d5565b620007806060830185620006e6565b6200078f60808301846200072b565b9695505050505050565b600082825260208201905092915050565b60005b83811015620007ca578082015181840152602081019050620007ad565b60008484015250505050565b6000601f19601f8301169050919050565b6000620007f4826200036a565b62000800818562000799565b935062000812818560208601620007aa565b6200081d81620007d6565b840191505092915050565b60006020820190508181036000830152620008448184620007e7565b905092915050565b600081519050919050565b6000819050602082019050919050565b6000620008758251620006cb565b80915050919050565b60006200088b826200084c565b82620008978462000857565b9050620008a48162000867565b92506020821015620008e757620008e27fffffffffffffffffffffffffffffffffffffffffffffffffffffffffffffffff836020036008026200042d565b831692505b5050919050565b60805160a05160c05160e051610100516101205161014051612f066200094960003960006105990152600061056501526000611905015260006118e4015260006113fd015260006114530152600061147c0152612f066000f3fe608060405234801561001057600080fd5b50600436106100cf5760003560e01c80638456cb591161008c578063e5b696d711610066578063e5b696d7146101ba578063f2fde38b146101d6578063f3e9e6e8146101f2578063fff3917914610210576100cf565b80638456cb591461016e57806384b0196e146101785780638da5cb5b1461019c576100cf565b8063349f0adc146100d45780633f4ba83a146101045780634fb2e45d1461010e5780635c975abb1461012a5780635ec2e59f14610148578063715018a614610164575b600080fd5b6100ee60048036038101906100e99190611b5d565b610240565b6040516100fb9190611bba565b60405180910390f35b61010c610259565b005b61012860048036038101906101239190611c33565b610273565b005b610132610287565b60405161013f9190611bba565b60405180910390f35b610162600480360381019061015d9190611b5d565b61029e565b005b61016c610524565b005b610176610538565b005b610180610552565b6040516101939796959493929190611e2a565b60405180910390f35b6101a4610654565b6040516101b19190611eae565b60405180910390f35b6101d460048036038101906101cf9190611b5d565b61067e565b005b6101f060048036038101906101eb9190611c33565b6108e3565b005b6101fa610966565b6040516102079190611ec9565b60405180910390f35b61022a60048036038101906102259190611b5d565b61098a565b6040516102379190611bba565b60405180910390f35b60008061024d8484610adc565b90508091505092915050565b610261610c6a565b610269610ce8565b610271610d31565b565b61027b610c6a565b61028481610d94565b50565b6000600260149054906101000a900460ff16905090565b6102a6610e5a565b6102af33610ea4565b6102ee576040517f08c379a00000000000000000000000000000000000000000000000000000000081526004016102e590611f30565b60405180910390fd5b6102f88282610adc565b610337576040517f08c379a000000000000000000000000000000000000000000000000000000000815260040161032e90611f9c565b60405180910390fd5b81600001602081019061034a9190611c33565b73ffffffffffffffffffffffffffffffffffffffff1663d505accf8360200160208101906103789190611c33565b308560600135866080016000013587608001602001600001602081019061039f9190611ff5565b886080016020016020013589608001602001604001356040518863ffffffff1660e01b81526004016103d79796959493929190612031565b600060405180830381600087803b1580156103f157600080fd5b505af1158015610405573d6000803e3d6000fd5b5050505061045e82602001602081019061041f9190611c33565b3084606001358560000160208101906104389190611c33565b73ffffffffffffffffffffffffffffffffffffffff16610f4e909392919063ffffffff16565b610466610fd7565b61052082600001602081019061047c9190611c33565b83604001602081019061048f9190611c33565b8460000160208101906104a29190611c33565b73ffffffffffffffffffffffffffffffffffffffff166370a08231306040518263ffffffff1660e01b81526004016104da9190611eae565b602060405180830381865afa1580156104f7573d6000803e3d6000fd5b505050506040513d601f19601f8201168201806040525081019061051b91906120cc565b611019565b5050565b61052c610c6a565b6105366000610d94565b565b610540610c6a565b610548610e5a565b61055061109f565b565b60006060806000806000606061059260007f000000000000000000000000000000000000000000000000000000000000000061110290919063ffffffff16565b6105c660017f000000000000000000000000000000000000000000000000000000000000000061110290919063ffffffff16565b46306000801b600067ffffffffffffffff8111156105e7576105e66120f9565b5b6040519080825280602002602001820160405280156106155781602001602082028036833780820191505090505b507f0f00000000000000000000000000000000000000000000000000000000000000959493929190965096509650965096509650965090919293949596565b6000600260009054906101000a900473ffffffffffffffffffffffffffffffffffffffff16905090565b6106888282610adc565b6106c7576040517f08c379a00000000000000000000000000000000000000000000000000000000081526004016106be90611f9c565b60405180910390fd5b8160000160208101906106da9190611c33565b73ffffffffffffffffffffffffffffffffffffffff1663d505accf8360200160208101906107089190611c33565b308560600135866080016000013587608001602001600001602081019061072f9190611ff5565b886080016020016020013589608001602001604001356040518863ffffffff1660e01b81526004016107679796959493929190612031565b600060405180830381600087803b15801561078157600080fd5b505af1158015610795573d6000803e3d6000fd5b505050506107ee8260200160208101906107af9190611c33565b3084606001358560000160208101906107c89190611c33565b73ffffffffffffffffffffffffffffffffffffffff16610f4e909392919063ffffffff16565b6108a88260000160208101906108049190611c33565b8360400160208101906108179190611c33565b84600001602081019061082a9190611c33565b73ffffffffffffffffffffffffffffffffffffffff166370a08231306040518263ffffffff1660e01b81526004016108629190611eae565b602060405180830381865afa15801561087f573d6000803e3d6000fd5b505050506040513d601f19601f820116820180604052508101906108a391906120cc565b611019565b6040517f08c379a00000000000000000000000000000000000000000000000000000000081526004016108da90612174565b60405180910390fd5b6108eb610c6a565b600073ffffffffffffffffffffffffffffffffffffffff168173ffffffffffffffffffffffffffffffffffffffff160361095a576040517f08c379a000000000000000000000000000000000000000000000000000000000815260040161095190612206565b60405180910390fd5b61096381610d94565b50565b7f667a8c7f09938d651a2ceb2108bc4cb5496e13b27b76c54d6ef988cede5ae59581565b6000610994610e5a565b3073ffffffffffffffffffffffffffffffffffffffff1663e5b696d784846040518363ffffffff1660e01b81526004016109cf92919061248a565b600060405180830381600087803b1580156109e957600080fd5b505af19250505080156109fa575060015b610a9657610a066124c2565b806308c379a003610a865750610a1a612515565b80610a255750610a88565b604051602001610a34906125d3565b6040516020818303038152906040528051906020012081604051602001610a5b9190612619565b6040516020818303038152906040528051906020012014610a80576000915050610ad6565b50610a91565b505b60009050610ad6565b610ad1565b6040517f08c379a0000000000000000000000000000000000000000000000000000000008152600401610ac8906126a2565b60405180910390fd5b600190505b92915050565b600080836000016020810190610af29190611c33565b73ffffffffffffffffffffffffffffffffffffffff16637ecebe00856020016020810190610b209190611c33565b6040518263ffffffff1660e01b8152600401610b3c9190611eae565b602060405180830381865afa158015610b59573d6000803e3d6000fd5b505050506040513d601f19601f82011682018060405250810190610b7d91906120cc565b905060007f667a8c7f09938d651a2ceb2108bc4cb5496e13b27b76c54d6ef988cede5ae595856040016020810190610bb59190611c33565b83604051602001610bc8939291906126c2565b6040516020818303038152906040528051906020012090506000610beb826111b2565b90506000610c1582876000016020810190610c069190611ff5565b886020013589604001356111cc565b90506000876020016020810190610c2c9190611c33565b73ffffffffffffffffffffffffffffffffffffffff168273ffffffffffffffffffffffffffffffffffffffff16149050809550505050505092915050565b610c726111f7565b73ffffffffffffffffffffffffffffffffffffffff16610c90610654565b73ffffffffffffffffffffffffffffffffffffffff1614610ce6576040517f08c379a0000000000000000000000000000000000000000000000000000000008152600401610cdd90612745565b60405180910390fd5b565b610cf0610287565b610d2f576040517f08c379a0000000000000000000000000000000000000000000000000000000008152600401610d26906127b1565b60405180910390fd5b565b610d39610ce8565b6000600260146101000a81548160ff0219169083151502179055507f5db9ee0a495bf2e6ff9c91a7834c1ba4fdd244a5e8aa4e537bd38aeae4b073aa610d7d6111f7565b604051610d8a9190611eae565b60405180910390a1565b6000600260009054906101000a900473ffffffffffffffffffffffffffffffffffffffff16905081600260006101000a81548173ffffffffffffffffffffffffffffffffffffffff021916908373ffffffffffffffffffffffffffffffffffffffff1602179055508173ffffffffffffffffffffffffffffffffffffffff168173ffffffffffffffffffffffffffffffffffffffff167f8be0079c531659141344cd1fd0a4f28419497f9722a3daafe3b4186f6b6457e060405160405180910390a35050565b610e62610287565b15610ea2576040517f08c379a0000000000000000000000000000000000000000000000000000000008152600401610e999061281d565b60405180910390fd5b565b6000610144461480610eb7575061011846145b610f035773abcc9b596420a9e9172fd5938620e265a0f9df9273ffffffffffffffffffffffffffffffffffffffff168273ffffffffffffffffffffffffffffffffffffffff1614610f47565b73b16a1dbe755f992636705fdbb3a8678a657eb3ea73ffffffffffffffffffffffffffffffffffffffff168273ffffffffffffffffffffffffffffffffffffffff16145b9050919050565b610fd1846323b872dd60e01b858585604051602401610f6f9392919061283d565b604051602081830303815290604052907bffffffffffffffffffffffffffffffffffffffffffffffffffffffff19166020820180517bffffffffffffffffffffffffffffffffffffffffffffffffffffffff83818316178352505050506111ff565b50505050565b611017610fe26112c7565b610fea6112d6565b610ff26112e5565b73ffffffffffffffffffffffffffffffffffffffff166112f49092919063ffffffff16565b565b61109a8363a9059cbb60e01b8484604051602401611038929190612874565b604051602081830303815290604052907bffffffffffffffffffffffffffffffffffffffffffffffffffffffff19166020820180517bffffffffffffffffffffffffffffffffffffffffffffffffffffffff83818316178352505050506111ff565b505050565b6110a7610e5a565b6001600260146101000a81548160ff0219169083151502179055507f62e78cea01bee320cd4e420270b5ea74000d11b0c9f74754ebdbfc544b05a2586110eb6111f7565b6040516110f89190611eae565b60405180910390a1565b606060ff60001b831461111f5761111883611385565b90506111ac565b81805461112b906128cc565b80601f0160208091040260200160405190810160405280929190818152602001828054611157906128cc565b80156111a45780601f10611179576101008083540402835291602001916111a4565b820191906000526020600020905b81548152906001019060200180831161118757829003601f168201915b505050505090505b92915050565b60006111c56111bf6113f9565b836114b0565b9050919050565b60008060006111dd878787876114f1565b915091506111ea816115d3565b8192505050949350505050565b600033905090565b6000611261826040518060400160405280602081526020017f5361666545524332303a206c6f772d6c6576656c2063616c6c206661696c65648152508573ffffffffffffffffffffffffffffffffffffffff166117399092919063ffffffff16565b90506000815114806112835750808060200190518101906112829190612929565b5b6112c2576040517f08c379a00000000000000000000000000000000000000000000000000000000081526004016112b9906129c8565b60405180910390fd5b505050565b60006112d1611751565b905090565b60006112e0611760565b905090565b60006112ef61176c565b905090565b60008103156113805773eeeeeeeeeeeeeeeeeeeeeeeeeeeeeeeeeeeeeeee73ffffffffffffffffffffffffffffffffffffffff168373ffffffffffffffffffffffffffffffffffffffff16146113745761136f82828573ffffffffffffffffffffffffffffffffffffffff166110199092919063ffffffff16565b61137f565b61137e828261177b565b5b5b505050565b606060006113928361186f565b90506000602067ffffffffffffffff8111156113b1576113b06120f9565b5b6040519080825280601f01601f1916602001820160405280156113e35781602001600182028036833780820191505090505b5090508181528360208201528092505050919050565b60007f000000000000000000000000000000000000000000000000000000000000000073ffffffffffffffffffffffffffffffffffffffff163073ffffffffffffffffffffffffffffffffffffffff1614801561147557507f000000000000000000000000000000000000000000000000000000000000000046145b156114a2577f000000000000000000000000000000000000000000000000000000000000000090506114ad565b6114aa6118bf565b90505b90565b60006040517f190100000000000000000000000000000000000000000000000000000000000081528360028201528260228201526042812091505092915050565b6000807f7fffffffffffffffffffffffffffffff5d576e7357a4501ddfe92f46681b20a08360001c111561152c5760006003915091506115ca565b60006001878787876040516000815260200160405260405161155194939291906129e8565b6020604051602081039080840390855afa158015611573573d6000803e3d6000fd5b505050602060405103519050600073ffffffffffffffffffffffffffffffffffffffff168173ffffffffffffffffffffffffffffffffffffffff16036115c1576000600192509250506115ca565b80600092509250505b94509492505050565b600060048111156115e7576115e6612a2d565b5b8160048111156115fa576115f9612a2d565b5b0315611736576001600481111561161457611613612a2d565b5b81600481111561162757611626612a2d565b5b03611667576040517f08c379a000000000000000000000000000000000000000000000000000000000815260040161165e90612aa8565b60405180910390fd5b6002600481111561167b5761167a612a2d565b5b81600481111561168e5761168d612a2d565b5b036116ce576040517f08c379a00000000000000000000000000000000000000000000000000000000081526004016116c590612b14565b60405180910390fd5b600360048111156116e2576116e1612a2d565b5b8160048111156116f5576116f4612a2d565b5b03611735576040517f08c379a000000000000000000000000000000000000000000000000000000000815260040161172c90612ba6565b60405180910390fd5b5b50565b60606117488484600085611955565b90509392505050565b6000604836033560601c905090565b60006020360335905090565b6000603436033560601c905090565b804710156117be576040517f08c379a00000000000000000000000000000000000000000000000000000000081526004016117b590612c12565b60405180910390fd5b60008273ffffffffffffffffffffffffffffffffffffffff16826040516117e490612c63565b60006040518083038185875af1925050503d8060008114611821576040519150601f19603f3d011682016040523d82523d6000602084013e611826565b606091505b505090508061186a576040517f08c379a000000000000000000000000000000000000000000000000000000000815260040161186190612cea565b60405180910390fd5b505050565b60008060ff8360001c169050601f8111156118b6576040517fb3512b0c00000000000000000000000000000000000000000000000000000000815260040160405180910390fd5b80915050919050565b60007f8b73c3c69bb8fe3d512ecc4cf759cc79239f7b179b0ffacaa9a75d522b39400f7f00000000000000000000000000000000000000000000000000000000000000007f0000000000000000000000000000000000000000000000000000000000000000463060405160200161193a959493929190612d0a565b60405160208183030381529060405280519060200120905090565b60608247101561199a576040517f08c379a000000000000000000000000000000000000000000000000000000000815260040161199190612dcf565b60405180910390fd5b6000808673ffffffffffffffffffffffffffffffffffffffff1685876040516119c39190612e2b565b60006040518083038185875af1925050503d8060008114611a00576040519150601f19603f3d011682016040523d82523d6000602084013e611a05565b606091505b5091509150611a1687838387611a22565b92505050949350505050565b60608315611a84576000835103611a7c57611a3c85611a97565b611a7b576040517f08c379a0000000000000000000000000000000000000000000000000000000008152600401611a7290612e8e565b60405180910390fd5b5b829050611a8f565b611a8e8383611aba565b5b949350505050565b6000808273ffffffffffffffffffffffffffffffffffffffff163b119050919050565b600082511115611acd5781518083602001fd5b806040517f08c379a0000000000000000000000000000000000000000000000000000000008152600401611b019190612eae565b60405180910390fd5b6000604051905090565b600080fd5b600080fd5b60006101008284031215611b3557611b34611b19565b5b81905092915050565b600060608284031215611b5457611b53611b19565b5b81905092915050565b6000806101608385031215611b7557611b74611b14565b5b6000611b8385828601611b1e565b925050610100611b9585828601611b3e565b9150509250929050565b60008115159050919050565b611bb481611b9f565b82525050565b6000602082019050611bcf6000830184611bab565b92915050565b600073ffffffffffffffffffffffffffffffffffffffff82169050919050565b6000611c0082611bd5565b9050919050565b611c1081611bf5565b8114611c1b57600080fd5b50565b600081359050611c2d81611c07565b92915050565b600060208284031215611c4957611c48611b14565b5b6000611c5784828501611c1e565b91505092915050565b60007fff0000000000000000000000000000000000000000000000000000000000000082169050919050565b611c9581611c60565b82525050565b600081519050919050565b600082825260208201905092915050565b60005b83811015611cd5578082015181840152602081019050611cba565b60008484015250505050565b6000601f19601f8301169050919050565b6000611cfd82611c9b565b611d078185611ca6565b9350611d17818560208601611cb7565b611d2081611ce1565b840191505092915050565b6000819050919050565b611d3e81611d2b565b82525050565b611d4d81611bf5565b82525050565b6000819050919050565b611d6681611d53565b82525050565b600081519050919050565b600082825260208201905092915050565b6000819050602082019050919050565b611da181611d2b565b82525050565b6000611db38383611d98565b60208301905092915050565b6000602082019050919050565b6000611dd782611d6c565b611de18185611d77565b9350611dec83611d88565b8060005b83811015611e1d578151611e048882611da7565b9750611e0f83611dbf565b925050600181019050611df0565b5085935050505092915050565b600060e082019050611e3f600083018a611c8c565b8181036020830152611e518189611cf2565b90508181036040830152611e658188611cf2565b9050611e746060830187611d35565b611e816080830186611d44565b611e8e60a0830185611d5d565b81810360c0830152611ea08184611dcc565b905098975050505050505050565b6000602082019050611ec36000830184611d44565b92915050565b6000602082019050611ede6000830184611d5d565b92915050565b7f6f6e6c7947656c61746f52656c61790000000000000000000000000000000000600082015250565b6000611f1a600f83611ca6565b9150611f2582611ee4565b602082019050919050565b60006020820190508181036000830152611f4981611f0d565b9050919050565b7f466c6173683a20696e76616c6964207369676e61747572650000000000000000600082015250565b6000611f86601883611ca6565b9150611f9182611f50565b602082019050919050565b60006020820190508181036000830152611fb581611f79565b9050919050565b600060ff82169050919050565b611fd281611fbc565b8114611fdd57600080fd5b50565b600081359050611fef81611fc9565b92915050565b60006020828403121561200b5761200a611b14565b5b600061201984828501611fe0565b91505092915050565b61202b81611fbc565b82525050565b600060e082019050612046600083018a611d44565b6120536020830189611d44565b6120606040830188611d35565b61206d6060830187611d35565b61207a6080830186612022565b61208760a0830185611d5d565b61209460c0830184611d5d565b98975050505050505050565b6120a981611d2b565b81146120b457600080fd5b50565b6000815190506120c6816120a0565b92915050565b6000602082840312156120e2576120e1611b14565b5b60006120f0848285016120b7565b91505092915050565b7f4e487b7100000000000000000000000000000000000000000000000000000000600052604160045260246000fd5b7f466c6173683a20766572696669636174696f6e20636f6d706c65746500000000600082015250565b600061215e601c83611ca6565b915061216982612128565b602082019050919050565b6000602082019050818103600083015261218d81612151565b9050919050565b7f4f776e61626c653a206e6577206f776e657220697320746865207a65726f206160008201527f6464726573730000000000000000000000000000000000000000000000000000602082015250565b60006121f0602683611ca6565b91506121fb82612194565b604082019050919050565b6000602082019050818103600083015261221f816121e3565b9050919050565b60006122356020840184611c1e565b905092915050565b61224681611bf5565b82525050565b60008135905061225b816120a0565b92915050565b6000612270602084018461224c565b905092915050565b600082905092915050565b600082905092915050565b600061229d6020840184611fe0565b905092915050565b6122ae81611fbc565b82525050565b6122bd81611d53565b81146122c857600080fd5b50565b6000813590506122da816122b4565b92915050565b60006122ef60208401846122cb565b905092915050565b61230081611d53565b82525050565b60608201612317600083018361228e565b61232460008501826122a5565b5061233260208301836122e0565b61233f60208501826122f7565b5061234d60408301836122e0565b61235a60408501826122f7565b50505050565b608082016123716000830183612261565b61237e6000850182611d98565b5061238c6020830183612283565b6123996020850182612306565b50505050565b61010082016123b16000830183612226565b6123be600085018261223d565b506123cc6020830183612226565b6123d9602085018261223d565b506123e76040830183612226565b6123f4604085018261223d565b506124026060830183612261565b61240f6060850182611d98565b5061241d6080830183612278565b61242a6080850182612360565b50505050565b60608201612441600083018361228e565b61244e60008501826122a5565b5061245c60208301836122e0565b61246960208501826122f7565b5061247760408301836122e0565b61248460408501826122f7565b50505050565b6000610160820190506124a0600083018561239f565b6124ae610100830184612430565b9392505050565b60008160e01c9050919050565b600060033d11156124e15760046000803e6124de6000516124b5565b90505b90565b6124ed82611ce1565b810181811067ffffffffffffffff8211171561250c5761250b6120f9565b5b80604052505050565b600060443d106125a257612527611b0a565b60043d036004823e80513d602482011167ffffffffffffffff8211171561254f5750506125a2565b808201805167ffffffffffffffff81111561256d57505050506125a2565b80602083010160043d03850181111561258a5750505050506125a2565b612599826020018501866124e4565b82955050505050505b90565b600081905092915050565b60006125bd601c836125a5565b91506125c882612128565b601c82019050919050565b60006125de826125b0565b9150819050919050565b60006125f382611c9b565b6125fd81856125a5565b935061260d818560208601611cb7565b80840191505092915050565b600061262582846125e8565b915081905092915050565b7f466c6173683a2076657269667944617461526576657274696e6720646964206e60008201527f6f74207265766572740000000000000000000000000000000000000000000000602082015250565b600061268c602983611ca6565b915061269782612630565b604082019050919050565b600060208201905081810360008301526126bb8161267f565b9050919050565b60006060820190506126d76000830186611d5d565b6126e46020830185611d44565b6126f16040830184611d35565b949350505050565b7f4f776e61626c653a2063616c6c6572206973206e6f7420746865206f776e6572600082015250565b600061272f602083611ca6565b915061273a826126f9565b602082019050919050565b6000602082019050818103600083015261275e81612722565b9050919050565b7f5061757361626c653a206e6f7420706175736564000000000000000000000000600082015250565b600061279b601483611ca6565b91506127a682612765565b602082019050919050565b600060208201905081810360008301526127ca8161278e565b9050919050565b7f5061757361626c653a2070617573656400000000000000000000000000000000600082015250565b6000612807601083611ca6565b9150612812826127d1565b602082019050919050565b60006020820190508181036000830152612836816127fa565b9050919050565b60006060820190506128526000830186611d44565b61285f6020830185611d44565b61286c6040830184611d35565b949350505050565b60006040820190506128896000830185611d44565b6128966020830184611d35565b9392505050565b7f4e487b7100000000000000000000000000000000000000000000000000000000600052602260045260246000fd5b600060028204905060018216806128e457607f821691505b6020821081036128f7576128f661289d565b5b50919050565b61290681611b9f565b811461291157600080fd5b50565b600081519050612923816128fd565b92915050565b60006020828403121561293f5761293e611b14565b5b600061294d84828501612914565b91505092915050565b7f5361666545524332303a204552433230206f7065726174696f6e20646964206e60008201527f6f74207375636365656400000000000000000000000000000000000000000000602082015250565b60006129b2602a83611ca6565b91506129bd82612956565b604082019050919050565b600060208201905081810360008301526129e1816129a5565b9050919050565b60006080820190506129fd6000830187611d5d565b612a0a6020830186612022565b612a176040830185611d5d565b612a246060830184611d5d565b95945050505050565b7f4e487b7100000000000000000000000000000000000000000000000000000000600052602160045260246000fd5b7f45434453413a20696e76616c6964207369676e61747572650000000000000000600082015250565b6000612a92601883611ca6565b9150612a9d82612a5c565b602082019050919050565b60006020820190508181036000830152612ac181612a85565b9050919050565b7f45434453413a20696e76616c6964207369676e6174757265206c656e67746800600082015250565b6000612afe601f83611ca6565b9150612b0982612ac8565b602082019050919050565b60006020820190508181036000830152612b2d81612af1565b9050919050565b7f45434453413a20696e76616c6964207369676e6174757265202773272076616c60008201527f7565000000000000000000000000000000000000000000000000000000000000602082015250565b6000612b90602283611ca6565b9150612b9b82612b34565b604082019050919050565b60006020820190508181036000830152612bbf81612b83565b9050919050565b7f416464726573733a20696e73756666696369656e742062616c616e6365000000600082015250565b6000612bfc601d83611ca6565b9150612c0782612bc6565b602082019050919050565b60006020820190508181036000830152612c2b81612bef565b9050919050565b600081905092915050565b50565b6000612c4d600083612c32565b9150612c5882612c3d565b600082019050919050565b6000612c6e82612c40565b9150819050919050565b7f416464726573733a20756e61626c6520746f2073656e642076616c75652c207260008201527f6563697069656e74206d61792068617665207265766572746564000000000000602082015250565b6000612cd4603a83611ca6565b9150612cdf82612c78565b604082019050919050565b60006020820190508181036000830152612d0381612cc7565b9050919050565b600060a082019050612d1f6000830188611d5d565b612d2c6020830187611d5d565b612d396040830186611d5d565b612d466060830185611d35565b612d536080830184611d44565b9695505050505050565b7f416464726573733a20696e73756666696369656e742062616c616e636520666f60008201527f722063616c6c0000000000000000000000000000000000000000000000000000602082015250565b6000612db9602683611ca6565b9150612dc482612d5d565b604082019050919050565b60006020820190508181036000830152612de881612dac565b9050919050565b600081519050919050565b6000612e0582612def565b612e0f8185612c32565b9350612e1f818560208601611cb7565b80840191505092915050565b6000612e378284612dfa565b915081905092915050565b7f416464726573733a2063616c6c20746f206e6f6e2d636f6e7472616374000000600082015250565b6000612e78601d83611ca6565b9150612e8382612e42565b602082019050919050565b60006020820190508181036000830152612ea781612e6b565b9050919050565b60006020820190508181036000830152612ec88184611cf2565b90509291505056fea2646970667358221220c67627b4a304fad6e9d9aedb8b7696004e7c86fbd6c55cfca299bd59f93de37664736f6c63430008140033",
  "devdoc": {
    "events": {
      "EIP712DomainChanged()": {
        "details": "MAY be emitted to signal that the domain could have changed."
      },
      "Paused(address)": {
        "details": "Emitted when the pause is triggered by `account`."
      },
      "Unpaused(address)": {
        "details": "Emitted when the pause is lifted by `account`."
      }
    },
    "kind": "dev",
    "methods": {
      "eip712Domain()": {
        "details": "See {EIP-5267}. _Available since v4.9._"
      },
      "owner()": {
        "details": "Returns the address of the current owner."
      },
      "paused()": {
        "details": "Returns true if the contract is paused, and false otherwise."
      },
      "renounceOwnership()": {
        "details": "Leaves the contract without owner. It will not be possible to call `onlyOwner` functions. Can only be called by the current owner. NOTE: Renouncing ownership will leave the contract without an owner, thereby disabling any functionality that is only available to the owner."
      },
      "transferOwnership(address)": {
        "details": "Transfers ownership of the contract to a new account (`newOwner`). Can only be called by the current owner."
      }
    },
    "version": 1
  },
  "userdoc": {
    "kind": "user",
    "methods": {},
    "version": 1
  },
  "storageLayout": {
    "storage": [
      {
        "astId": 2397,
        "contract": "contracts/Flash.sol:Flash",
        "label": "_nameFallback",
        "offset": 0,
        "slot": "0",
        "type": "t_string_storage"
      },
      {
        "astId": 2399,
        "contract": "contracts/Flash.sol:Flash",
        "label": "_versionFallback",
        "offset": 0,
        "slot": "1",
        "type": "t_string_storage"
      },
      {
        "astId": 363,
        "contract": "contracts/Flash.sol:Flash",
        "label": "_owner",
        "offset": 0,
        "slot": "2",
        "type": "t_address"
      },
      {
        "astId": 511,
        "contract": "contracts/Flash.sol:Flash",
        "label": "_paused",
        "offset": 20,
        "slot": "2",
        "type": "t_bool"
      }
    ],
    "types": {
      "t_address": {
        "encoding": "inplace",
        "label": "address",
        "numberOfBytes": "20"
      },
      "t_bool": {
        "encoding": "inplace",
        "label": "bool",
        "numberOfBytes": "1"
      },
      "t_string_storage": {
        "encoding": "bytes",
        "label": "string",
        "numberOfBytes": "32"
      }
    }
  }
}