{
  "address": "0xc67d1bFD13F28cAA8FE2Bb5D73fD228166aC8df0",
  "abi": [
    {
      "inputs": [],
      "stateMutability": "nonpayable",
      "type": "constructor"
    },
    {
      "inputs": [],
      "name": "InvalidShortString",
      "type": "error"
    },
    {
      "inputs": [
        {
          "internalType": "string",
          "name": "str",
          "type": "string"
        }
      ],
      "name": "StringTooLong",
      "type": "error"
    },
    {
      "anonymous": false,
      "inputs": [],
      "name": "EIP712DomainChanged",
      "type": "event"
    },
    {
      "anonymous": false,
      "inputs": [
        {
          "indexed": true,
          "internalType": "address",
          "name": "previousOwner",
          "type": "address"
        },
        {
          "indexed": true,
          "internalType": "address",
          "name": "newOwner",
          "type": "address"
        }
      ],
      "name": "OwnershipTransferred",
      "type": "event"
    },
    {
      "anonymous": false,
      "inputs": [
        {
          "indexed": false,
          "internalType": "address",
          "name": "account",
          "type": "address"
        }
      ],
      "name": "Paused",
      "type": "event"
    },
    {
      "anonymous": false,
      "inputs": [
        {
          "indexed": true,
          "internalType": "address",
          "name": "token",
          "type": "address"
        },
        {
          "indexed": true,
          "internalType": "address",
          "name": "from",
          "type": "address"
        },
        {
          "indexed": true,
          "internalType": "address",
          "name": "to",
          "type": "address"
        },
        {
          "indexed": false,
          "internalType": "uint256",
          "name": "amount",
          "type": "uint256"
        }
      ],
      "name": "Payment",
      "type": "event"
    },
    {
      "anonymous": false,
      "inputs": [
        {
          "indexed": false,
          "internalType": "address",
          "name": "account",
          "type": "address"
        }
      ],
      "name": "Unpaused",
      "type": "event"
    },
    {
      "inputs": [],
      "name": "PAY_TYPEHASH",
      "outputs": [
        {
          "internalType": "bytes32",
          "name": "",
          "type": "bytes32"
        }
      ],
      "stateMutability": "view",
      "type": "function"
    },
    {
      "inputs": [],
      "name": "eip712Domain",
      "outputs": [
        {
          "internalType": "bytes1",
          "name": "fields",
          "type": "bytes1"
        },
        {
          "internalType": "string",
          "name": "name",
          "type": "string"
        },
        {
          "internalType": "string",
          "name": "version",
          "type": "string"
        },
        {
          "internalType": "uint256",
          "name": "chainId",
          "type": "uint256"
        },
        {
          "internalType": "address",
          "name": "verifyingContract",
          "type": "address"
        },
        {
          "internalType": "bytes32",
          "name": "salt",
          "type": "bytes32"
        },
        {
          "internalType": "uint256[]",
          "name": "extensions",
          "type": "uint256[]"
        }
      ],
      "stateMutability": "view",
      "type": "function"
    },
    {
      "inputs": [],
      "name": "owner",
      "outputs": [
        {
          "internalType": "address",
          "name": "",
          "type": "address"
        }
      ],
      "stateMutability": "view",
      "type": "function"
    },
    {
      "inputs": [],
      "name": "pause",
      "outputs": [],
      "stateMutability": "nonpayable",
      "type": "function"
    },
    {
      "inputs": [],
      "name": "paused",
      "outputs": [
        {
          "internalType": "bool",
          "name": "",
          "type": "bool"
        }
      ],
      "stateMutability": "view",
      "type": "function"
    },
    {
      "inputs": [
        {
          "components": [
            {
              "internalType": "address",
              "name": "token",
              "type": "address"
            },
            {
              "internalType": "address",
              "name": "from",
              "type": "address"
            },
            {
              "internalType": "address",
              "name": "to",
              "type": "address"
            },
            {
              "internalType": "uint256",
              "name": "amount",
              "type": "uint256"
            },
            {
              "components": [
                {
                  "internalType": "uint256",
                  "name": "deadline",
                  "type": "uint256"
                },
                {
                  "components": [
                    {
                      "internalType": "uint8",
                      "name": "v",
                      "type": "uint8"
                    },
                    {
                      "internalType": "bytes32",
                      "name": "r",
                      "type": "bytes32"
                    },
                    {
                      "internalType": "bytes32",
                      "name": "s",
                      "type": "bytes32"
                    }
                  ],
                  "internalType": "struct Flash.Signature",
                  "name": "signature",
                  "type": "tuple"
                }
              ],
              "internalType": "struct Flash.PermitData",
              "name": "permitData",
              "type": "tuple"
            }
          ],
          "internalType": "struct Flash.PaymentData",
          "name": "_paymentData",
          "type": "tuple"
        },
        {
          "components": [
            {
              "internalType": "uint8",
              "name": "v",
              "type": "uint8"
            },
            {
              "internalType": "bytes32",
              "name": "r",
              "type": "bytes32"
            },
            {
              "internalType": "bytes32",
              "name": "s",
              "type": "bytes32"
            }
          ],
          "internalType": "struct Flash.Signature",
          "name": "_signature",
          "type": "tuple"
        }
      ],
      "name": "pay",
      "outputs": [],
      "stateMutability": "nonpayable",
      "type": "function"
    },
    {
      "inputs": [],
      "name": "renounceOwnership",
      "outputs": [],
      "stateMutability": "nonpayable",
      "type": "function"
    },
    {
      "inputs": [
        {
          "internalType": "address",
          "name": "_newOwner",
          "type": "address"
        }
      ],
      "name": "transferOwner",
      "outputs": [],
      "stateMutability": "nonpayable",
      "type": "function"
    },
    {
      "inputs": [
        {
          "internalType": "address",
          "name": "newOwner",
          "type": "address"
        }
      ],
      "name": "transferOwnership",
      "outputs": [],
      "stateMutability": "nonpayable",
      "type": "function"
    },
    {
      "inputs": [],
      "name": "unpause",
      "outputs": [],
      "stateMutability": "nonpayable",
      "type": "function"
    },
    {
      "inputs": [
        {
          "components": [
            {
              "internalType": "address",
              "name": "token",
              "type": "address"
            },
            {
              "internalType": "address",
              "name": "from",
              "type": "address"
            },
            {
              "internalType": "address",
              "name": "to",
              "type": "address"
            },
            {
              "internalType": "uint256",
              "name": "amount",
              "type": "uint256"
            },
            {
              "components": [
                {
                  "internalType": "uint256",
                  "name": "deadline",
                  "type": "uint256"
                },
                {
                  "components": [
                    {
                      "internalType": "uint8",
                      "name": "v",
                      "type": "uint8"
                    },
                    {
                      "internalType": "bytes32",
                      "name": "r",
                      "type": "bytes32"
                    },
                    {
                      "internalType": "bytes32",
                      "name": "s",
                      "type": "bytes32"
                    }
                  ],
                  "internalType": "struct Flash.Signature",
                  "name": "signature",
                  "type": "tuple"
                }
              ],
              "internalType": "struct Flash.PermitData",
              "name": "permitData",
              "type": "tuple"
            }
          ],
          "internalType": "struct Flash.PaymentData",
          "name": "_paymentData",
          "type": "tuple"
        },
        {
          "components": [
            {
              "internalType": "uint8",
              "name": "v",
              "type": "uint8"
            },
            {
              "internalType": "bytes32",
              "name": "r",
              "type": "bytes32"
            },
            {
              "internalType": "bytes32",
              "name": "s",
              "type": "bytes32"
            }
          ],
          "internalType": "struct Flash.Signature",
          "name": "_signature",
          "type": "tuple"
        }
      ],
      "name": "verifyData",
      "outputs": [
        {
          "internalType": "bool",
          "name": "",
          "type": "bool"
        }
      ],
      "stateMutability": "nonpayable",
      "type": "function"
    },
    {
      "inputs": [
        {
          "components": [
            {
              "internalType": "address",
              "name": "token",
              "type": "address"
            },
            {
              "internalType": "address",
              "name": "from",
              "type": "address"
            },
            {
              "internalType": "address",
              "name": "to",
              "type": "address"
            },
            {
              "internalType": "uint256",
              "name": "amount",
              "type": "uint256"
            },
            {
              "components": [
                {
                  "internalType": "uint256",
                  "name": "deadline",
                  "type": "uint256"
                },
                {
                  "components": [
                    {
                      "internalType": "uint8",
                      "name": "v",
                      "type": "uint8"
                    },
                    {
                      "internalType": "bytes32",
                      "name": "r",
                      "type": "bytes32"
                    },
                    {
                      "internalType": "bytes32",
                      "name": "s",
                      "type": "bytes32"
                    }
                  ],
                  "internalType": "struct Flash.Signature",
                  "name": "signature",
                  "type": "tuple"
                }
              ],
              "internalType": "struct Flash.PermitData",
              "name": "permitData",
              "type": "tuple"
            }
          ],
          "internalType": "struct Flash.PaymentData",
          "name": "_paymentData",
          "type": "tuple"
        },
        {
          "components": [
            {
              "internalType": "uint8",
              "name": "v",
              "type": "uint8"
            },
            {
              "internalType": "bytes32",
              "name": "r",
              "type": "bytes32"
            },
            {
              "internalType": "bytes32",
              "name": "s",
              "type": "bytes32"
            }
          ],
          "internalType": "struct Flash.Signature",
          "name": "_signature",
          "type": "tuple"
        }
      ],
      "name": "verifyDataReverting",
      "outputs": [],
      "stateMutability": "nonpayable",
      "type": "function"
    },
    {
      "inputs": [
        {
          "components": [
            {
              "internalType": "address",
              "name": "token",
              "type": "address"
            },
            {
              "internalType": "address",
              "name": "from",
              "type": "address"
            },
            {
              "internalType": "address",
              "name": "to",
              "type": "address"
            },
            {
              "internalType": "uint256",
              "name": "amount",
              "type": "uint256"
            },
            {
              "components": [
                {
                  "internalType": "uint256",
                  "name": "deadline",
                  "type": "uint256"
                },
                {
                  "components": [
                    {
                      "internalType": "uint8",
                      "name": "v",
                      "type": "uint8"
                    },
                    {
                      "internalType": "bytes32",
                      "name": "r",
                      "type": "bytes32"
                    },
                    {
                      "internalType": "bytes32",
                      "name": "s",
                      "type": "bytes32"
                    }
                  ],
                  "internalType": "struct Flash.Signature",
                  "name": "signature",
                  "type": "tuple"
                }
              ],
              "internalType": "struct Flash.PermitData",
              "name": "permitData",
              "type": "tuple"
            }
          ],
          "internalType": "struct Flash.PaymentData",
          "name": "_paymentData",
          "type": "tuple"
        },
        {
          "components": [
            {
              "internalType": "uint8",
              "name": "v",
              "type": "uint8"
            },
            {
              "internalType": "bytes32",
              "name": "r",
              "type": "bytes32"
            },
            {
              "internalType": "bytes32",
              "name": "s",
              "type": "bytes32"
            }
          ],
          "internalType": "struct Flash.Signature",
          "name": "_signature",
          "type": "tuple"
        }
      ],
      "name": "verifySignature",
      "outputs": [
        {
          "internalType": "bool",
          "name": "",
          "type": "bool"
        }
      ],
      "stateMutability": "view",
      "type": "function"
    }
  ],
  "transactionHash": "0x3f391038c5b7935235658323127b21a11b46368d0ca82fe5a064430de95b0d8c",
  "args": [],
  "numDeployments": 1,
  "solcInputHash": "a6d78ba29982f9ea79d32bbe6732346e",
  "bytecode": "0x6101606040523480156200001257600080fd5b506040518060400160405280600581526020017f466c6173680000000000000000000000000000000000000000000000000000008152506040518060400160405280600181526020017f3100000000000000000000000000000000000000000000000000000000000000815250620000956000836200017060201b90919060201c565b6101208181525050620000b36001826200017060201b90919060201c565b6101408181525050818051906020012060e08181525050808051906020012061010081815250504660a08181525050620000f2620001c860201b60201c565b608081815250503073ffffffffffffffffffffffffffffffffffffffff1660c08173ffffffffffffffffffffffffffffffffffffffff168152505050506200014f620001436200022560201b60201c565b6200022d60201b60201c565b6000600260146101000a81548160ff021916908315150217905550620008ee565b600060208351101562000196576200018e83620002f360201b60201c565b9050620001c2565b82620001a8836200036060201b60201c565b6000019081620001b99190620005e4565b5060ff60001b90505b92915050565b60007f8b73c3c69bb8fe3d512ecc4cf759cc79239f7b179b0ffacaa9a75d522b39400f60e0516101005146306040516020016200020a9594939291906200073c565b60405160208183030381529060405280519060200120905090565b600033905090565b6000600260009054906101000a900473ffffffffffffffffffffffffffffffffffffffff16905081600260006101000a81548173ffffffffffffffffffffffffffffffffffffffff021916908373ffffffffffffffffffffffffffffffffffffffff1602179055508173ffffffffffffffffffffffffffffffffffffffff168173ffffffffffffffffffffffffffffffffffffffff167f8be0079c531659141344cd1fd0a4f28419497f9722a3daafe3b4186f6b6457e060405160405180910390a35050565b600080829050601f815111156200034357826040517f305a27a90000000000000000000000000000000000000000000000000000000081526004016200033a919062000828565b60405180910390fd5b80518162000351906200087e565b60001c1760001b915050919050565b6000819050919050565b600081519050919050565b7f4e487b7100000000000000000000000000000000000000000000000000000000600052604160045260246000fd5b7f4e487b7100000000000000000000000000000000000000000000000000000000600052602260045260246000fd5b60006002820490506001821680620003ec57607f821691505b602082108103620004025762000401620003a4565b5b50919050565b60008190508160005260206000209050919050565b60006020601f8301049050919050565b600082821b905092915050565b6000600883026200046c7fffffffffffffffffffffffffffffffffffffffffffffffffffffffffffffffff826200042d565b6200047886836200042d565b95508019841693508086168417925050509392505050565b6000819050919050565b6000819050919050565b6000620004c5620004bf620004b98462000490565b6200049a565b62000490565b9050919050565b6000819050919050565b620004e183620004a4565b620004f9620004f082620004cc565b8484546200043a565b825550505050565b600090565b6200051062000501565b6200051d818484620004d6565b505050565b5b8181101562000545576200053960008262000506565b60018101905062000523565b5050565b601f82111562000594576200055e8162000408565b62000569846200041d565b8101602085101562000579578190505b6200059162000588856200041d565b83018262000522565b50505b505050565b600082821c905092915050565b6000620005b96000198460080262000599565b1980831691505092915050565b6000620005d48383620005a6565b9150826002028217905092915050565b620005ef826200036a565b67ffffffffffffffff8111156200060b576200060a62000375565b5b620006178254620003d3565b6200062482828562000549565b600060209050601f8311600181146200065c576000841562000647578287015190505b620006538582620005c6565b865550620006c3565b601f1984166200066c8662000408565b60005b8281101562000696578489015182556001820191506020850194506020810190506200066f565b86831015620006b65784890151620006b2601f891682620005a6565b8355505b6001600288020188555050505b505050505050565b6000819050919050565b620006e081620006cb565b82525050565b620006f18162000490565b82525050565b600073ffffffffffffffffffffffffffffffffffffffff82169050919050565b60006200072482620006f7565b9050919050565b620007368162000717565b82525050565b600060a082019050620007536000830188620006d5565b620007626020830187620006d5565b620007716040830186620006d5565b620007806060830185620006e6565b6200078f60808301846200072b565b9695505050505050565b600082825260208201905092915050565b60005b83811015620007ca578082015181840152602081019050620007ad565b60008484015250505050565b6000601f19601f8301169050919050565b6000620007f4826200036a565b62000800818562000799565b935062000812818560208601620007aa565b6200081d81620007d6565b840191505092915050565b60006020820190508181036000830152620008448184620007e7565b905092915050565b600081519050919050565b6000819050602082019050919050565b6000620008758251620006cb565b80915050919050565b60006200088b826200084c565b82620008978462000857565b9050620008a48162000867565b92506020821015620008e757620008e27fffffffffffffffffffffffffffffffffffffffffffffffffffffffffffffffff836020036008026200042d565b831692505b5050919050565b60805160a05160c05160e051610100516101205161014051612fd762000949600039600061064f0152600061061b015260006119bb0152600061199a015260006114b301526000611509015260006115320152612fd76000f3fe608060405234801561001057600080fd5b50600436106100cf5760003560e01c80638456cb591161008c578063e5b696d711610066578063e5b696d7146101ba578063f2fde38b146101d6578063f3e9e6e8146101f2578063fff3917914610210576100cf565b80638456cb591461016e57806384b0196e146101785780638da5cb5b1461019c576100cf565b8063349f0adc146100d45780633f4ba83a146101045780634fb2e45d1461010e5780635c975abb1461012a5780635ec2e59f14610148578063715018a614610164575b600080fd5b6100ee60048036038101906100e99190611c13565b610240565b6040516100fb9190611c70565b60405180910390f35b61010c610259565b005b61012860048036038101906101239190611ce9565b610273565b005b610132610287565b60405161013f9190611c70565b60405180910390f35b610162600480360381019061015d9190611c13565b61029e565b005b61016c6105da565b005b6101766105ee565b005b610180610608565b6040516101939796959493929190611ee0565b60405180910390f35b6101a461070a565b6040516101b19190611f64565b60405180910390f35b6101d460048036038101906101cf9190611c13565b610734565b005b6101f060048036038101906101eb9190611ce9565b610999565b005b6101fa610a1c565b6040516102079190611f7f565b60405180910390f35b61022a60048036038101906102259190611c13565b610a40565b6040516102379190611c70565b60405180910390f35b60008061024d8484610b92565b90508091505092915050565b610261610d20565b610269610d9e565b610271610de7565b565b61027b610d20565b61028481610e4a565b50565b6000600260149054906101000a900460ff16905090565b6102a6610f10565b6102af33610f5a565b6102ee576040517f08c379a00000000000000000000000000000000000000000000000000000000081526004016102e590611fe6565b60405180910390fd5b6102f88282610b92565b610337576040517f08c379a000000000000000000000000000000000000000000000000000000000815260040161032e90612052565b60405180910390fd5b81600001602081019061034a9190611ce9565b73ffffffffffffffffffffffffffffffffffffffff1663d505accf8360200160208101906103789190611ce9565b308560600135866080016000013587608001602001600001602081019061039f91906120ab565b886080016020016020013589608001602001604001356040518863ffffffff1660e01b81526004016103d797969594939291906120e7565b600060405180830381600087803b1580156103f157600080fd5b505af1158015610405573d6000803e3d6000fd5b5050505061045e82602001602081019061041f9190611ce9565b3084606001358560000160208101906104389190611ce9565b73ffffffffffffffffffffffffffffffffffffffff16611004909392919063ffffffff16565b61046661108d565b61052082600001602081019061047c9190611ce9565b83604001602081019061048f9190611ce9565b8460000160208101906104a29190611ce9565b73ffffffffffffffffffffffffffffffffffffffff166370a08231306040518263ffffffff1660e01b81526004016104da9190611f64565b602060405180830381865afa1580156104f7573d6000803e3d6000fd5b505050506040513d601f19601f8201168201806040525081019061051b9190612182565b6110cf565b8160400160208101906105339190611ce9565b73ffffffffffffffffffffffffffffffffffffffff1682602001602081019061055c9190611ce9565b73ffffffffffffffffffffffffffffffffffffffff168360000160208101906105859190611ce9565b73ffffffffffffffffffffffffffffffffffffffff167f0913aa4718e76655dbdbde41862a88aba8459d8721849484c97f53af3b5028e685606001356040516105ce91906121af565b60405180910390a45050565b6105e2610d20565b6105ec6000610e4a565b565b6105f6610d20565b6105fe610f10565b610606611155565b565b60006060806000806000606061064860007f00000000000000000000000000000000000000000000000000000000000000006111b890919063ffffffff16565b61067c60017f00000000000000000000000000000000000000000000000000000000000000006111b890919063ffffffff16565b46306000801b600067ffffffffffffffff81111561069d5761069c6121ca565b5b6040519080825280602002602001820160405280156106cb5781602001602082028036833780820191505090505b507f0f00000000000000000000000000000000000000000000000000000000000000959493929190965096509650965096509650965090919293949596565b6000600260009054906101000a900473ffffffffffffffffffffffffffffffffffffffff16905090565b61073e8282610b92565b61077d576040517f08c379a000000000000000000000000000000000000000000000000000000000815260040161077490612052565b60405180910390fd5b8160000160208101906107909190611ce9565b73ffffffffffffffffffffffffffffffffffffffff1663d505accf8360200160208101906107be9190611ce9565b30856060013586608001600001358760800160200160000160208101906107e591906120ab565b886080016020016020013589608001602001604001356040518863ffffffff1660e01b815260040161081d97969594939291906120e7565b600060405180830381600087803b15801561083757600080fd5b505af115801561084b573d6000803e3d6000fd5b505050506108a48260200160208101906108659190611ce9565b30846060013585600001602081019061087e9190611ce9565b73ffffffffffffffffffffffffffffffffffffffff16611004909392919063ffffffff16565b61095e8260000160208101906108ba9190611ce9565b8360400160208101906108cd9190611ce9565b8460000160208101906108e09190611ce9565b73ffffffffffffffffffffffffffffffffffffffff166370a08231306040518263ffffffff1660e01b81526004016109189190611f64565b602060405180830381865afa158015610935573d6000803e3d6000fd5b505050506040513d601f19601f820116820180604052508101906109599190612182565b6110cf565b6040517f08c379a000000000000000000000000000000000000000000000000000000000815260040161099090612245565b60405180910390fd5b6109a1610d20565b600073ffffffffffffffffffffffffffffffffffffffff168173ffffffffffffffffffffffffffffffffffffffff1603610a10576040517f08c379a0000000000000000000000000000000000000000000000000000000008152600401610a07906122d7565b60405180910390fd5b610a1981610e4a565b50565b7f667a8c7f09938d651a2ceb2108bc4cb5496e13b27b76c54d6ef988cede5ae59581565b6000610a4a610f10565b3073ffffffffffffffffffffffffffffffffffffffff1663e5b696d784846040518363ffffffff1660e01b8152600401610a8592919061255b565b600060405180830381600087803b158015610a9f57600080fd5b505af1925050508015610ab0575060015b610b4c57610abc612593565b806308c379a003610b3c5750610ad06125e6565b80610adb5750610b3e565b604051602001610aea906126a4565b6040516020818303038152906040528051906020012081604051602001610b1191906126ea565b6040516020818303038152906040528051906020012014610b36576000915050610b8c565b50610b47565b505b60009050610b8c565b610b87565b6040517f08c379a0000000000000000000000000000000000000000000000000000000008152600401610b7e90612773565b60405180910390fd5b600190505b92915050565b600080836000016020810190610ba89190611ce9565b73ffffffffffffffffffffffffffffffffffffffff16637ecebe00856020016020810190610bd69190611ce9565b6040518263ffffffff1660e01b8152600401610bf29190611f64565b602060405180830381865afa158015610c0f573d6000803e3d6000fd5b505050506040513d601f19601f82011682018060405250810190610c339190612182565b905060007f667a8c7f09938d651a2ceb2108bc4cb5496e13b27b76c54d6ef988cede5ae595856040016020810190610c6b9190611ce9565b83604051602001610c7e93929190612793565b6040516020818303038152906040528051906020012090506000610ca182611268565b90506000610ccb82876000016020810190610cbc91906120ab565b88602001358960400135611282565b90506000876020016020810190610ce29190611ce9565b73ffffffffffffffffffffffffffffffffffffffff168273ffffffffffffffffffffffffffffffffffffffff16149050809550505050505092915050565b610d286112ad565b73ffffffffffffffffffffffffffffffffffffffff16610d4661070a565b73ffffffffffffffffffffffffffffffffffffffff1614610d9c576040517f08c379a0000000000000000000000000000000000000000000000000000000008152600401610d9390612816565b60405180910390fd5b565b610da6610287565b610de5576040517f08c379a0000000000000000000000000000000000000000000000000000000008152600401610ddc90612882565b60405180910390fd5b565b610def610d9e565b6000600260146101000a81548160ff0219169083151502179055507f5db9ee0a495bf2e6ff9c91a7834c1ba4fdd244a5e8aa4e537bd38aeae4b073aa610e336112ad565b604051610e409190611f64565b60405180910390a1565b6000600260009054906101000a900473ffffffffffffffffffffffffffffffffffffffff16905081600260006101000a81548173ffffffffffffffffffffffffffffffffffffffff021916908373ffffffffffffffffffffffffffffffffffffffff1602179055508173ffffffffffffffffffffffffffffffffffffffff168173ffffffffffffffffffffffffffffffffffffffff167f8be0079c531659141344cd1fd0a4f28419497f9722a3daafe3b4186f6b6457e060405160405180910390a35050565b610f18610287565b15610f58576040517f08c379a0000000000000000000000000000000000000000000000000000000008152600401610f4f906128ee565b60405180910390fd5b565b6000610144461480610f6d575061011846145b610fb95773abcc9b596420a9e9172fd5938620e265a0f9df9273ffffffffffffffffffffffffffffffffffffffff168273ffffffffffffffffffffffffffffffffffffffff1614610ffd565b73b16a1dbe755f992636705fdbb3a8678a657eb3ea73ffffffffffffffffffffffffffffffffffffffff168273ffffffffffffffffffffffffffffffffffffffff16145b9050919050565b611087846323b872dd60e01b8585856040516024016110259392919061290e565b604051602081830303815290604052907bffffffffffffffffffffffffffffffffffffffffffffffffffffffff19166020820180517bffffffffffffffffffffffffffffffffffffffffffffffffffffffff83818316178352505050506112b5565b50505050565b6110cd61109861137d565b6110a061138c565b6110a861139b565b73ffffffffffffffffffffffffffffffffffffffff166113aa9092919063ffffffff16565b565b6111508363a9059cbb60e01b84846040516024016110ee929190612945565b604051602081830303815290604052907bffffffffffffffffffffffffffffffffffffffffffffffffffffffff19166020820180517bffffffffffffffffffffffffffffffffffffffffffffffffffffffff83818316178352505050506112b5565b505050565b61115d610f10565b6001600260146101000a81548160ff0219169083151502179055507f62e78cea01bee320cd4e420270b5ea74000d11b0c9f74754ebdbfc544b05a2586111a16112ad565b6040516111ae9190611f64565b60405180910390a1565b606060ff60001b83146111d5576111ce8361143b565b9050611262565b8180546111e19061299d565b80601f016020809104026020016040519081016040528092919081815260200182805461120d9061299d565b801561125a5780601f1061122f5761010080835404028352916020019161125a565b820191906000526020600020905b81548152906001019060200180831161123d57829003601f168201915b505050505090505b92915050565b600061127b6112756114af565b83611566565b9050919050565b6000806000611293878787876115a7565b915091506112a081611689565b8192505050949350505050565b600033905090565b6000611317826040518060400160405280602081526020017f5361666545524332303a206c6f772d6c6576656c2063616c6c206661696c65648152508573ffffffffffffffffffffffffffffffffffffffff166117ef9092919063ffffffff16565b905060008151148061133957508080602001905181019061133891906129fa565b5b611378576040517f08c379a000000000000000000000000000000000000000000000000000000000815260040161136f90612a99565b60405180910390fd5b505050565b6000611387611807565b905090565b6000611396611816565b905090565b60006113a5611822565b905090565b60008103156114365773eeeeeeeeeeeeeeeeeeeeeeeeeeeeeeeeeeeeeeee73ffffffffffffffffffffffffffffffffffffffff168373ffffffffffffffffffffffffffffffffffffffff161461142a5761142582828573ffffffffffffffffffffffffffffffffffffffff166110cf9092919063ffffffff16565b611435565b6114348282611831565b5b5b505050565b6060600061144883611925565b90506000602067ffffffffffffffff811115611467576114666121ca565b5b6040519080825280601f01601f1916602001820160405280156114995781602001600182028036833780820191505090505b5090508181528360208201528092505050919050565b60007f000000000000000000000000000000000000000000000000000000000000000073ffffffffffffffffffffffffffffffffffffffff163073ffffffffffffffffffffffffffffffffffffffff1614801561152b57507f000000000000000000000000000000000000000000000000000000000000000046145b15611558577f00000000000000000000000000000000000000000000000000000000000000009050611563565b611560611975565b90505b90565b60006040517f190100000000000000000000000000000000000000000000000000000000000081528360028201528260228201526042812091505092915050565b6000807f7fffffffffffffffffffffffffffffff5d576e7357a4501ddfe92f46681b20a08360001c11156115e2576000600391509150611680565b6000600187878787604051600081526020016040526040516116079493929190612ab9565b6020604051602081039080840390855afa158015611629573d6000803e3d6000fd5b505050602060405103519050600073ffffffffffffffffffffffffffffffffffffffff168173ffffffffffffffffffffffffffffffffffffffff160361167757600060019250925050611680565b80600092509250505b94509492505050565b6000600481111561169d5761169c612afe565b5b8160048111156116b0576116af612afe565b5b03156117ec57600160048111156116ca576116c9612afe565b5b8160048111156116dd576116dc612afe565b5b0361171d576040517f08c379a000000000000000000000000000000000000000000000000000000000815260040161171490612b79565b60405180910390fd5b6002600481111561173157611730612afe565b5b81600481111561174457611743612afe565b5b03611784576040517f08c379a000000000000000000000000000000000000000000000000000000000815260040161177b90612be5565b60405180910390fd5b6003600481111561179857611797612afe565b5b8160048111156117ab576117aa612afe565b5b036117eb576040517f08c379a00000000000000000000000000000000000000000000000000000000081526004016117e290612c77565b60405180910390fd5b5b50565b60606117fe8484600085611a0b565b90509392505050565b6000604836033560601c905090565b60006020360335905090565b6000603436033560601c905090565b80471015611874576040517f08c379a000000000000000000000000000000000000000000000000000000000815260040161186b90612ce3565b60405180910390fd5b60008273ffffffffffffffffffffffffffffffffffffffff168260405161189a90612d34565b60006040518083038185875af1925050503d80600081146118d7576040519150601f19603f3d011682016040523d82523d6000602084013e6118dc565b606091505b5050905080611920576040517f08c379a000000000000000000000000000000000000000000000000000000000815260040161191790612dbb565b60405180910390fd5b505050565b60008060ff8360001c169050601f81111561196c576040517fb3512b0c00000000000000000000000000000000000000000000000000000000815260040160405180910390fd5b80915050919050565b60007f8b73c3c69bb8fe3d512ecc4cf759cc79239f7b179b0ffacaa9a75d522b39400f7f00000000000000000000000000000000000000000000000000000000000000007f000000000000000000000000000000000000000000000000000000000000000046306040516020016119f0959493929190612ddb565b60405160208183030381529060405280519060200120905090565b606082471015611a50576040517f08c379a0000000000000000000000000000000000000000000000000000000008152600401611a4790612ea0565b60405180910390fd5b6000808673ffffffffffffffffffffffffffffffffffffffff168587604051611a799190612efc565b60006040518083038185875af1925050503d8060008114611ab6576040519150601f19603f3d011682016040523d82523d6000602084013e611abb565b606091505b5091509150611acc87838387611ad8565b92505050949350505050565b60608315611b3a576000835103611b3257611af285611b4d565b611b31576040517f08c379a0000000000000000000000000000000000000000000000000000000008152600401611b2890612f5f565b60405180910390fd5b5b829050611b45565b611b448383611b70565b5b949350505050565b6000808273ffffffffffffffffffffffffffffffffffffffff163b119050919050565b600082511115611b835781518083602001fd5b806040517f08c379a0000000000000000000000000000000000000000000000000000000008152600401611bb79190612f7f565b60405180910390fd5b6000604051905090565b600080fd5b600080fd5b60006101008284031215611beb57611bea611bcf565b5b81905092915050565b600060608284031215611c0a57611c09611bcf565b5b81905092915050565b6000806101608385031215611c2b57611c2a611bca565b5b6000611c3985828601611bd4565b925050610100611c4b85828601611bf4565b9150509250929050565b60008115159050919050565b611c6a81611c55565b82525050565b6000602082019050611c856000830184611c61565b92915050565b600073ffffffffffffffffffffffffffffffffffffffff82169050919050565b6000611cb682611c8b565b9050919050565b611cc681611cab565b8114611cd157600080fd5b50565b600081359050611ce381611cbd565b92915050565b600060208284031215611cff57611cfe611bca565b5b6000611d0d84828501611cd4565b91505092915050565b60007fff0000000000000000000000000000000000000000000000000000000000000082169050919050565b611d4b81611d16565b82525050565b600081519050919050565b600082825260208201905092915050565b60005b83811015611d8b578082015181840152602081019050611d70565b60008484015250505050565b6000601f19601f8301169050919050565b6000611db382611d51565b611dbd8185611d5c565b9350611dcd818560208601611d6d565b611dd681611d97565b840191505092915050565b6000819050919050565b611df481611de1565b82525050565b611e0381611cab565b82525050565b6000819050919050565b611e1c81611e09565b82525050565b600081519050919050565b600082825260208201905092915050565b6000819050602082019050919050565b611e5781611de1565b82525050565b6000611e698383611e4e565b60208301905092915050565b6000602082019050919050565b6000611e8d82611e22565b611e978185611e2d565b9350611ea283611e3e565b8060005b83811015611ed3578151611eba8882611e5d565b9750611ec583611e75565b925050600181019050611ea6565b5085935050505092915050565b600060e082019050611ef5600083018a611d42565b8181036020830152611f078189611da8565b90508181036040830152611f1b8188611da8565b9050611f2a6060830187611deb565b611f376080830186611dfa565b611f4460a0830185611e13565b81810360c0830152611f568184611e82565b905098975050505050505050565b6000602082019050611f796000830184611dfa565b92915050565b6000602082019050611f946000830184611e13565b92915050565b7f6f6e6c7947656c61746f52656c61790000000000000000000000000000000000600082015250565b6000611fd0600f83611d5c565b9150611fdb82611f9a565b602082019050919050565b60006020820190508181036000830152611fff81611fc3565b9050919050565b7f466c6173683a20696e76616c6964207369676e61747572650000000000000000600082015250565b600061203c601883611d5c565b915061204782612006565b602082019050919050565b6000602082019050818103600083015261206b8161202f565b9050919050565b600060ff82169050919050565b61208881612072565b811461209357600080fd5b50565b6000813590506120a58161207f565b92915050565b6000602082840312156120c1576120c0611bca565b5b60006120cf84828501612096565b91505092915050565b6120e181612072565b82525050565b600060e0820190506120fc600083018a611dfa565b6121096020830189611dfa565b6121166040830188611deb565b6121236060830187611deb565b61213060808301866120d8565b61213d60a0830185611e13565b61214a60c0830184611e13565b98975050505050505050565b61215f81611de1565b811461216a57600080fd5b50565b60008151905061217c81612156565b92915050565b60006020828403121561219857612197611bca565b5b60006121a68482850161216d565b91505092915050565b60006020820190506121c46000830184611deb565b92915050565b7f4e487b7100000000000000000000000000000000000000000000000000000000600052604160045260246000fd5b7f466c6173683a20766572696669636174696f6e20636f6d706c65746500000000600082015250565b600061222f601c83611d5c565b915061223a826121f9565b602082019050919050565b6000602082019050818103600083015261225e81612222565b9050919050565b7f4f776e61626c653a206e6577206f776e657220697320746865207a65726f206160008201527f6464726573730000000000000000000000000000000000000000000000000000602082015250565b60006122c1602683611d5c565b91506122cc82612265565b604082019050919050565b600060208201905081810360008301526122f0816122b4565b9050919050565b60006123066020840184611cd4565b905092915050565b61231781611cab565b82525050565b60008135905061232c81612156565b92915050565b6000612341602084018461231d565b905092915050565b600082905092915050565b600082905092915050565b600061236e6020840184612096565b905092915050565b61237f81612072565b82525050565b61238e81611e09565b811461239957600080fd5b50565b6000813590506123ab81612385565b92915050565b60006123c0602084018461239c565b905092915050565b6123d181611e09565b82525050565b606082016123e8600083018361235f565b6123f56000850182612376565b5061240360208301836123b1565b61241060208501826123c8565b5061241e60408301836123b1565b61242b60408501826123c8565b50505050565b608082016124426000830183612332565b61244f6000850182611e4e565b5061245d6020830183612354565b61246a60208501826123d7565b50505050565b610100820161248260008301836122f7565b61248f600085018261230e565b5061249d60208301836122f7565b6124aa602085018261230e565b506124b860408301836122f7565b6124c5604085018261230e565b506124d36060830183612332565b6124e06060850182611e4e565b506124ee6080830183612349565b6124fb6080850182612431565b50505050565b60608201612512600083018361235f565b61251f6000850182612376565b5061252d60208301836123b1565b61253a60208501826123c8565b5061254860408301836123b1565b61255560408501826123c8565b50505050565b6000610160820190506125716000830185612470565b61257f610100830184612501565b9392505050565b60008160e01c9050919050565b600060033d11156125b25760046000803e6125af600051612586565b90505b90565b6125be82611d97565b810181811067ffffffffffffffff821117156125dd576125dc6121ca565b5b80604052505050565b600060443d10612673576125f8611bc0565b60043d036004823e80513d602482011167ffffffffffffffff82111715612620575050612673565b808201805167ffffffffffffffff81111561263e5750505050612673565b80602083010160043d03850181111561265b575050505050612673565b61266a826020018501866125b5565b82955050505050505b90565b600081905092915050565b600061268e601c83612676565b9150612699826121f9565b601c82019050919050565b60006126af82612681565b9150819050919050565b60006126c482611d51565b6126ce8185612676565b93506126de818560208601611d6d565b80840191505092915050565b60006126f682846126b9565b915081905092915050565b7f466c6173683a2076657269667944617461526576657274696e6720646964206e60008201527f6f74207265766572740000000000000000000000000000000000000000000000602082015250565b600061275d602983611d5c565b915061276882612701565b604082019050919050565b6000602082019050818103600083015261278c81612750565b9050919050565b60006060820190506127a86000830186611e13565b6127b56020830185611dfa565b6127c26040830184611deb565b949350505050565b7f4f776e61626c653a2063616c6c6572206973206e6f7420746865206f776e6572600082015250565b6000612800602083611d5c565b915061280b826127ca565b602082019050919050565b6000602082019050818103600083015261282f816127f3565b9050919050565b7f5061757361626c653a206e6f7420706175736564000000000000000000000000600082015250565b600061286c601483611d5c565b915061287782612836565b602082019050919050565b6000602082019050818103600083015261289b8161285f565b9050919050565b7f5061757361626c653a2070617573656400000000000000000000000000000000600082015250565b60006128d8601083611d5c565b91506128e3826128a2565b602082019050919050565b60006020820190508181036000830152612907816128cb565b9050919050565b60006060820190506129236000830186611dfa565b6129306020830185611dfa565b61293d6040830184611deb565b949350505050565b600060408201905061295a6000830185611dfa565b6129676020830184611deb565b9392505050565b7f4e487b7100000000000000000000000000000000000000000000000000000000600052602260045260246000fd5b600060028204905060018216806129b557607f821691505b6020821081036129c8576129c761296e565b5b50919050565b6129d781611c55565b81146129e257600080fd5b50565b6000815190506129f4816129ce565b92915050565b600060208284031215612a1057612a0f611bca565b5b6000612a1e848285016129e5565b91505092915050565b7f5361666545524332303a204552433230206f7065726174696f6e20646964206e60008201527f6f74207375636365656400000000000000000000000000000000000000000000602082015250565b6000612a83602a83611d5c565b9150612a8e82612a27565b604082019050919050565b60006020820190508181036000830152612ab281612a76565b9050919050565b6000608082019050612ace6000830187611e13565b612adb60208301866120d8565b612ae86040830185611e13565b612af56060830184611e13565b95945050505050565b7f4e487b7100000000000000000000000000000000000000000000000000000000600052602160045260246000fd5b7f45434453413a20696e76616c6964207369676e61747572650000000000000000600082015250565b6000612b63601883611d5c565b9150612b6e82612b2d565b602082019050919050565b60006020820190508181036000830152612b9281612b56565b9050919050565b7f45434453413a20696e76616c6964207369676e6174757265206c656e67746800600082015250565b6000612bcf601f83611d5c565b9150612bda82612b99565b602082019050919050565b60006020820190508181036000830152612bfe81612bc2565b9050919050565b7f45434453413a20696e76616c6964207369676e6174757265202773272076616c60008201527f7565000000000000000000000000000000000000000000000000000000000000602082015250565b6000612c61602283611d5c565b9150612c6c82612c05565b604082019050919050565b60006020820190508181036000830152612c9081612c54565b9050919050565b7f416464726573733a20696e73756666696369656e742062616c616e6365000000600082015250565b6000612ccd601d83611d5c565b9150612cd882612c97565b602082019050919050565b60006020820190508181036000830152612cfc81612cc0565b9050919050565b600081905092915050565b50565b6000612d1e600083612d03565b9150612d2982612d0e565b600082019050919050565b6000612d3f82612d11565b9150819050919050565b7f416464726573733a20756e61626c6520746f2073656e642076616c75652c207260008201527f6563697069656e74206d61792068617665207265766572746564000000000000602082015250565b6000612da5603a83611d5c565b9150612db082612d49565b604082019050919050565b60006020820190508181036000830152612dd481612d98565b9050919050565b600060a082019050612df06000830188611e13565b612dfd6020830187611e13565b612e0a6040830186611e13565b612e176060830185611deb565b612e246080830184611dfa565b9695505050505050565b7f416464726573733a20696e73756666696369656e742062616c616e636520666f60008201527f722063616c6c0000000000000000000000000000000000000000000000000000602082015250565b6000612e8a602683611d5c565b9150612e9582612e2e565b604082019050919050565b60006020820190508181036000830152612eb981612e7d565b9050919050565b600081519050919050565b6000612ed682612ec0565b612ee08185612d03565b9350612ef0818560208601611d6d565b80840191505092915050565b6000612f088284612ecb565b915081905092915050565b7f416464726573733a2063616c6c20746f206e6f6e2d636f6e7472616374000000600082015250565b6000612f49601d83611d5c565b9150612f5482612f13565b602082019050919050565b60006020820190508181036000830152612f7881612f3c565b9050919050565b60006020820190508181036000830152612f998184611da8565b90509291505056fea26469706673582212203b39644e95f2a9f5b4ec6154435272b385b0489bd0c52b506276f13ff980375364736f6c63430008140033",
  "devdoc": {
    "events": {
      "EIP712DomainChanged()": {
        "details": "MAY be emitted to signal that the domain could have changed."
      },
      "Paused(address)": {
        "details": "Emitted when the pause is triggered by `account`."
      },
      "Unpaused(address)": {
        "details": "Emitted when the pause is lifted by `account`."
      }
    },
    "kind": "dev",
    "methods": {
      "eip712Domain()": {
        "details": "See {EIP-5267}. _Available since v4.9._"
      },
      "owner()": {
        "details": "Returns the address of the current owner."
      },
      "paused()": {
        "details": "Returns true if the contract is paused, and false otherwise."
      },
      "renounceOwnership()": {
        "details": "Leaves the contract without owner. It will not be possible to call `onlyOwner` functions. Can only be called by the current owner. NOTE: Renouncing ownership will leave the contract without an owner, thereby disabling any functionality that is only available to the owner."
      },
      "transferOwnership(address)": {
        "details": "Transfers ownership of the contract to a new account (`newOwner`). Can only be called by the current owner."
      }
    },
    "version": 1
  },
  "userdoc": {
    "kind": "user",
    "methods": {},
    "version": 1
  },
  "storageLayout": {
    "storage": [
      {
        "astId": 2397,
        "contract": "contracts/Flash.sol:Flash",
        "label": "_nameFallback",
        "offset": 0,
        "slot": "0",
        "type": "t_string_storage"
      },
      {
        "astId": 2399,
        "contract": "contracts/Flash.sol:Flash",
        "label": "_versionFallback",
        "offset": 0,
        "slot": "1",
        "type": "t_string_storage"
      },
      {
        "astId": 363,
        "contract": "contracts/Flash.sol:Flash",
        "label": "_owner",
        "offset": 0,
        "slot": "2",
        "type": "t_address"
      },
      {
        "astId": 511,
        "contract": "contracts/Flash.sol:Flash",
        "label": "_paused",
        "offset": 20,
        "slot": "2",
        "type": "t_bool"
      }
    ],
    "types": {
      "t_address": {
        "encoding": "inplace",
        "label": "address",
        "numberOfBytes": "20"
      },
      "t_bool": {
        "encoding": "inplace",
        "label": "bool",
        "numberOfBytes": "1"
      },
      "t_string_storage": {
        "encoding": "bytes",
        "label": "string",
        "numberOfBytes": "32"
      }
    }
  }
}